{"contracts/BetLobby.sol":{"BetLobby":{"abi":[{"inputs":[{"internalType":"address","name":"_token","type":"address"},{"internalType":"address","name":"_operator","type":"address"},{"internalType":"address","name":"_feeRecipient","type":"address"}],"stateMutability":"nonpayable","type":"constructor"},{"inputs":[],"name":"EnforcedPause","type":"error"},{"inputs":[],"name":"ExpectedPause","type":"error"},{"inputs":[{"internalType":"address","name":"owner","type":"address"}],"name":"OwnableInvalidOwner","type":"error"},{"inputs":[{"internalType":"address","name":"account","type":"address"}],"name":"OwnableUnauthorizedAccount","type":"error"},{"inputs":[],"name":"ReentrancyGuardReentrantCall","type":"error"},{"inputs":[{"internalType":"address","name":"token","type":"address"}],"name":"SafeERC20FailedOperation","type":"error"},{"anonymous":false,"inputs":[{"indexed":true,"internalType":"uint256","name":"lobbyId","type":"uint256"},{"indexed":true,"internalType":"address","name":"player","type":"address"},{"indexed":false,"internalType":"uint96","name":"amount","type":"uint96"}],"name":"Claimed","type":"event"},{"anonymous":false,"inputs":[{"indexed":true,"internalType":"uint256","name":"lobbyId","type":"uint256"},{"indexed":false,"internalType":"uint64","name":"startTime","type":"uint64"},{"indexed":false,"internalType":"uint64","name":"endTime","type":"uint64"}],"name":"LobbyActivated","type":"event"},{"anonymous":false,"inputs":[{"indexed":true,"internalType":"uint256","name":"lobbyId","type":"uint256"},{"indexed":false,"internalType":"bytes32","name":"merkleRoot","type":"bytes32"},{"indexed":false,"internalType":"uint96","name":"totalPayout","type":"uint96"},{"indexed":false,"internalType":"uint96","name":"feeAmount","type":"uint96"}],"name":"LobbyFinalized","type":"event"},{"anonymous":false,"inputs":[{"indexed":true,"internalType":"uint256","name":"lobbyId","type":"uint256"},{"indexed":true,"internalType":"address","name":"player","type":"address"}],"name":"LobbyJoined","type":"event"},{"anonymous":false,"inputs":[{"indexed":true,"internalType":"address","name":"previousOwner","type":"address"},{"indexed":true,"internalType":"address","name":"newOwner","type":"address"}],"name":"OwnershipTransferred","type":"event"},{"anonymous":false,"inputs":[{"indexed":false,"internalType":"address","name":"account","type":"address"}],"name":"Paused","type":"event"},{"anonymous":false,"inputs":[{"indexed":true,"internalType":"uint256","name":"lobbyId","type":"uint256"},{"indexed":true,"internalType":"address","name":"player","type":"address"}],"name":"TimeoutRefund","type":"event"},{"anonymous":false,"inputs":[{"indexed":false,"internalType":"address","name":"account","type":"address"}],"name":"Unpaused","type":"event"},{"inputs":[],"name":"DEPOSIT_AMOUNT","outputs":[{"internalType":"uint256","name":"","type":"uint256"}],"stateMutability":"view","type":"function"},{"inputs":[],"name":"FINALIZE_DEADLINE_EXTENSION","outputs":[{"internalType":"uint256","name":"","type":"uint256"}],"stateMutability":"view","type":"function"},{"inputs":[],"name":"LOBBY_DURATION","outputs":[{"internalType":"uint256","name":"","type":"uint256"}],"stateMutability":"view","type":"function"},{"inputs":[{"internalType":"uint256","name":"lobbyId","type":"uint256"},{"internalType":"address","name":"player","type":"address"},{"internalType":"uint96","name":"amount","type":"uint96"},{"internalType":"bytes32[]","name":"proof","type":"bytes32[]"}],"name":"claim","outputs":[],"stateMutability":"nonpayable","type":"function"},{"inputs":[{"internalType":"uint256","name":"","type":"uint256"},{"internalType":"address","name":"","type":"address"}],"name":"claimed","outputs":[{"internalType":"bool","name":"","type":"bool"}],"stateMutability":"view","type":"function"},{"inputs":[],"name":"feeBps","outputs":[{"internalType":"uint16","name":"","type":"uint16"}],"stateMutability":"view","type":"function"},{"inputs":[],"name":"feeRecipient","outputs":[{"internalType":"address","name":"","type":"address"}],"stateMutability":"view","type":"function"},{"inputs":[{"internalType":"uint256","name":"lobbyId","type":"uint256"},{"internalType":"bytes32","name":"root","type":"bytes32"},{"internalType":"uint96","name":"totalPayout","type":"uint96"},{"internalType":"uint96","name":"feeAmount","type":"uint96"}],"name":"finalizeLobby","outputs":[],"stateMutability":"nonpayable","type":"function"},{"inputs":[{"internalType":"uint256","name":"","type":"uint256"},{"internalType":"address","name":"","type":"address"}],"name":"hasDeposited","outputs":[{"internalType":"bool","name":"","type":"bool"}],"stateMutability":"view","type":"function"},{"inputs":[{"internalType":"uint256","name":"lobbyId","type":"uint256"}],"name":"joinLobby","outputs":[],"stateMutability":"nonpayable","type":"function"},{"inputs":[{"internalType":"uint256","name":"","type":"uint256"}],"name":"lobbies","outputs":[{"internalType":"uint64","name":"startTime","type":"uint64"},{"internalType":"uint64","name":"endTime","type":"uint64"},{"internalType":"uint64","name":"finalizeDeadline","type":"uint64"},{"internalType":"enum BetLobby.LobbyState","name":"state","type":"uint8"},{"internalType":"bytes32","name":"merkleRoot","type":"bytes32"},{"internalType":"uint96","name":"totalDeposits","type":"uint96"},{"internalType":"uint96","name":"totalClaimed","type":"uint96"}],"stateMutability":"view","type":"function"},{"inputs":[],"name":"operator","outputs":[{"internalType":"address","name":"","type":"address"}],"stateMutability":"view","type":"function"},{"inputs":[],"name":"owner","outputs":[{"internalType":"address","name":"","type":"address"}],"stateMutability":"view","type":"function"},{"inputs":[],"name":"pause","outputs":[],"stateMutability":"nonpayable","type":"function"},{"inputs":[],"name":"paused","outputs":[{"internalType":"bool","name":"","type":"bool"}],"stateMutability":"view","type":"function"},{"inputs":[],"name":"renounceOwnership","outputs":[],"stateMutability":"nonpayable","type":"function"},{"inputs":[{"internalType":"uint16","name":"_feeBps","type":"uint16"}],"name":"setFeeBps","outputs":[],"stateMutability":"nonpayable","type":"function"},{"inputs":[{"internalType":"address","name":"_feeRecipient","type":"address"}],"name":"setFeeRecipient","outputs":[],"stateMutability":"nonpayable","type":"function"},{"inputs":[{"internalType":"address","name":"_operator","type":"address"}],"name":"setOperator","outputs":[],"stateMutability":"nonpayable","type":"function"},{"inputs":[{"internalType":"uint256","name":"lobbyId","type":"uint256"}],"name":"timeoutRefund","outputs":[],"stateMutability":"nonpayable","type":"function"},{"inputs":[],"name":"token","outputs":[{"internalType":"contract IERC20","name":"","type":"address"}],"stateMutability":"view","type":"function"},{"inputs":[{"internalType":"address","name":"newOwner","type":"address"}],"name":"transferOwnership","outputs":[],"stateMutability":"nonpayable","type":"function"},{"inputs":[],"name":"unpause","outputs":[],"stateMutability":"nonpayable","type":"function"}],"evm":{"bytecode":{"linkReferences":{},"object":"60a06040526003805461ffff60a01b1916607d60a21b1790553480156200002557600080fd5b50604051620019f2380380620019f283398101604081905262000048916200022c565b33806200007057604051631e4fbdf760e01b8152600060048201526024015b60405180910390fd5b6200007b81620001bf565b50600180556001600160a01b038316620000d85760405162461bcd60e51b815260206004820152601560248201527f496e76616c696420746f6b656e20616464726573730000000000000000000000604482015260640162000067565b6001600160a01b038216620001305760405162461bcd60e51b815260206004820152601860248201527f496e76616c6964206f70657261746f7220616464726573730000000000000000604482015260640162000067565b6001600160a01b038116620001885760405162461bcd60e51b815260206004820152601d60248201527f496e76616c69642066656520726563697069656e742061646472657373000000604482015260640162000067565b6001600160a01b03928316608052600280549284166001600160a01b03199384161790556003805491909316911617905562000276565b600080546001600160a01b038381166001600160a01b0319831681178455604051919092169283917f8be0079c531659141344cd1fd0a4f28419497f9722a3daafe3b4186f6b6457e09190a35050565b80516001600160a01b03811681146200022757600080fd5b919050565b6000806000606084860312156200024257600080fd5b6200024d846200020f565b92506200025d602085016200020f565b91506200026d604085016200020f565b90509250925092565b608051611744620002ae600039600081816103ae015281816106bc015281816109f801528181610c310152610da301526117446000f3fe608060405234801561001057600080fd5b506004361061014d5760003560e01c8063715018a6116100c3578063dcdfd05e1161007c578063dcdfd05e14610353578063e74b981b14610366578063e9173b3a14610379578063ec6925a71461038c578063f2fde38b14610396578063fc0c546a146103a957600080fd5b8063715018a6146102de5780638456cb59146102e65780638da5cb5b146102ee57806399b1eb2e146102ff5780639ec95c501461032d578063b3ab15fb1461034057600080fd5b80633f4ba83a116101155780633f4ba83a146101fc5780634690484014610204578063570ca7351461022f5780635c5c8382146102425780635c975abb1461024b5780636e8fb4c61461025d57600080fd5b8063023b1fc914610152578063029c58f614610167578063120aa8771461017a57806314717e38146101bd57806324a9d853146101d4575b600080fd5b6101656101603660046113e4565b6103d0565b005b610165610175366004611424565b610444565b6101a8610188366004611481565b600560209081526000928352604080842090915290825290205460ff1681565b60405190151581526020015b60405180910390f35b6101c661025881565b6040519081526020016101b4565b6003546101e990600160a01b900461ffff1681565b60405161ffff90911681526020016101b4565b610165610741565b600354610217906001600160a01b031681565b6040516001600160a01b0390911681526020016101b4565b600254610217906001600160a01b031681565b6101c661012c81565b600054600160a01b900460ff166101a8565b6102cb61026b3660046114ad565b60046020526000908152604090208054600182015460029092015467ffffffffffffffff80831693600160401b8404821693600160801b810490921692600160c01b90920460ff16916001600160601b0380821691600160601b90041687565b6040516101b497969594939291906114dc565b610165610753565b610165610765565b6000546001600160a01b0316610217565b6101a861030d366004611481565b600660209081526000928352604080842090915290825290205460ff1681565b61016561033b366004611549565b610775565b61016561034e3660046115e7565b610a89565b6101656103613660046114ad565b610afc565b6101656103743660046115e7565b610c95565b6101656103873660046114ad565b610d0d565b6101c6620f424081565b6101656103a43660046115e7565b61106c565b6102177f000000000000000000000000000000000000000000000000000000000000000081565b6103d86110a7565b6103e88161ffff1611156104225760405162461bcd60e51b815260206004820152600c60248201526b08ccaca40e8dede40d0d2ced60a31b60448201526064015b60405180910390fd5b6003805461ffff909216600160a01b0261ffff60a01b19909216919091179055565b6002546001600160a01b0316331461048e5760405162461bcd60e51b815260206004820152600d60248201526c27b7363c9037b832b930ba37b960991b6044820152606401610419565b6001600085815260046020526040902054600160c01b900460ff1660028111156104ba576104ba6114c6565b146104fa5760405162461bcd60e51b815260206004820152601060248201526f4c6f626279206e6f742061637469766560801b6044820152606401610419565b600084815260046020526040902054600160401b900467ffffffffffffffff1642101561055b5760405162461bcd60e51b815260206004820152600f60248201526e131bd8989e481b9bdd08195b991959608a1b6044820152606401610419565b6000848152600460205260409020600201546001600160601b03166105808284611618565b6001600160601b0316146105c85760405162461bcd60e51b815260206004820152600f60248201526e0a0c2f2deeae840dad2e6dac2e8c6d608b1b6044820152606401610419565b600354600090612710906105e790600160a01b900461ffff168561163f565b6105f1919061166a565b90506105fe60018261169e565b6001600160601b0316826001600160601b03161015801561063b5750610625816001611618565b6001600160601b0316826001600160601b031611155b6106765760405162461bcd60e51b815260206004820152600c60248201526b08ccaca40dad2e6dac2e8c6d60a31b6044820152606401610419565b600085815260046020526040902060018101859055805460ff60c01b1916600160c11b1790556001600160601b038216156106ee576003546106ee906001600160a01b037f0000000000000000000000000000000000000000000000000000000000000000811691166001600160601b0385166110d4565b604080518581526001600160601b038581166020830152841681830152905186917ff94a182a3aa555c6fb7d5b86ac0f641b5ccb3464c17556d0a11c50f1d96f7b7b919081900360600190a25050505050565b6107496110a7565b610751611138565b565b61075b6110a7565b610751600061118d565b61076d6110a7565b6107516111dd565b61077d611220565b6002600086815260046020526040902054600160c01b900460ff1660028111156107a9576107a96114c6565b146107ec5760405162461bcd60e51b8152602060048201526013602482015272131bd8989e481b9bdd08199a5b985b1a5e9959606a1b6044820152606401610419565b60008581526005602090815260408083206001600160a01b038816845290915290205460ff16156108515760405162461bcd60e51b815260206004820152600f60248201526e105b1c9958591e4818db185a5b5959608a1b6044820152606401610419565b336001600160a01b0385161461089a5760405162461bcd60e51b815260206004820152600e60248201526d4e6f7420796f757220636c61696d60901b6044820152606401610419565b604080516001600160a01b03861660208201526001600160601b0385169181019190915260009060600160405160208183030381529060405280519060200120905061092a83838080602002602001604051908101604052809392919081815260200183836020028082843760009201829052508b815260046020526040902060010154925085915061124a9050565b6109665760405162461bcd60e51b815260206004820152600d60248201526c24b73b30b634b210383937b7b360991b6044820152606401610419565b60008681526005602090815260408083206001600160a01b03891684528252808320805460ff19166001179055888352600490915290206002018054859190600c906109c49084906001600160601b03600160601b90910416611618565b92506101000a8154816001600160601b0302191690836001600160601b03160217905550610a2f85856001600160601b03167f00000000000000000000000000000000000000000000000000000000000000006001600160a01b03166110d49092919063ffffffff16565b6040516001600160601b03851681526001600160a01b0386169087907fad83ad6ef8abb1529a9d4bdb6b9d2bddcf34dc334ef5e99677db83a2cae98fa49060200160405180910390a350610a8260018055565b5050505050565b610a916110a7565b6001600160a01b038116610ada5760405162461bcd60e51b815260206004820152601060248201526f24b73b30b634b21037b832b930ba37b960811b6044820152606401610419565b600280546001600160a01b0319166001600160a01b0392909216919091179055565b610b04611220565b600081815260046020526040902060018154600160c01b900460ff166002811115610b3157610b316114c6565b14610b715760405162461bcd60e51b815260206004820152601060248201526f4c6f626279206e6f742061637469766560801b6044820152606401610419565b8054600160801b900467ffffffffffffffff164211610bc85760405162461bcd60e51b8152602060048201526013602482015272111958591b1a5b99481b9bdd081c185cdcd959606a1b6044820152606401610419565b600082815260066020908152604080832033845290915290205460ff16610c245760405162461bcd60e51b815260206004820152601060248201526f139bc819195c1bdcda5d08199bdd5b9960821b6044820152606401610419565b610c5b6001600160a01b037f00000000000000000000000000000000000000000000000000000000000000001633620f42406110d4565b604051339083907f9dc10ede665d3fe08611de6af7e048434f244dfb391fe658d575676aa09c060e90600090a350610c9260018055565b50565b610c9d6110a7565b6001600160a01b038116610ceb5760405162461bcd60e51b8152602060048201526015602482015274125b9d985b1a5908199959481c9958da5c1a595b9d605a1b6044820152606401610419565b600380546001600160a01b0319166001600160a01b0392909216919091179055565b610d15611260565b610d1d611220565b6002600082815260046020526040902054600160c01b900460ff166002811115610d4957610d496114c6565b03610d965760405162461bcd60e51b815260206004820152601760248201527f4c6f62627920616c72656164792066696e616c697a65640000000000000000006044820152606401610419565b610dce6001600160a01b037f0000000000000000000000000000000000000000000000000000000000000000163330620f424061128b565b60008181526006602090815260408083203384529091528120805460ff19166001179055600082815260046020526040902054600160c01b900460ff166002811115610e1c57610e1c6114c6565b03610fe457426000610e3061012c836116be565b90506000610e40610258836116be565b90506040518060e001604052808467ffffffffffffffff1681526020018367ffffffffffffffff1681526020018267ffffffffffffffff16815260200160016002811115610e9057610e906114c6565b815260006020808301829052620f42406040808501919091526060938401839052888352600482529182902084518154928601519386015167ffffffffffffffff908116600160801b0267ffffffffffffffff60801b19958216600160401b026fffffffffffffffffffffffffffffffff19909516919092161792909217928316821781559284015191839160ff60c01b191668ffffffffffffffffff60801b1990911617600160c01b836002811115610f4c57610f4c6114c6565b02179055506080820151600182015560a08201516002909101805460c0909301516001600160601b03908116600160601b026001600160c01b03199094169216919091179190911790556040805167ffffffffffffffff85811682528416602082015285917ff982295d1467944e5d401d9ac56d299eb16e1166b7ada36f3c7452f24d286a4f910160405180910390a2505050611036565b60008181526004602052604081206002018054620f424092906110119084906001600160601b0316611618565b92506101000a8154816001600160601b0302191690836001600160601b031602179055505b604051339082907fa31ecd4ef5c4170fc73b952e6c0344155875718dd9892919041e8a449246cb2690600090a3610c9260018055565b6110746110a7565b6001600160a01b03811661109e57604051631e4fbdf760e01b815260006004820152602401610419565b610c928161118d565b6000546001600160a01b031633146107515760405163118cdaa760e01b8152336004820152602401610419565b6040516001600160a01b0383811660248301526044820183905261113391859182169063a9059cbb906064015b604051602081830303815290604052915060e01b6020820180516001600160e01b0383818316178352505050506112ca565b505050565b61114061133b565b6000805460ff60a01b191690557f5db9ee0a495bf2e6ff9c91a7834c1ba4fdd244a5e8aa4e537bd38aeae4b073aa335b6040516001600160a01b03909116815260200160405180910390a1565b600080546001600160a01b038381166001600160a01b0319831681178455604051919092169283917f8be0079c531659141344cd1fd0a4f28419497f9722a3daafe3b4186f6b6457e09190a35050565b6111e5611260565b6000805460ff60a01b1916600160a01b1790557f62e78cea01bee320cd4e420270b5ea74000d11b0c9f74754ebdbfc544b05a2586111703390565b60026001540361124357604051633ee5aeb560e01b815260040160405180910390fd5b6002600155565b6000826112578584611365565b14949350505050565b600054600160a01b900460ff16156107515760405163d93c066560e01b815260040160405180910390fd5b6040516001600160a01b0384811660248301528381166044830152606482018390526112c49186918216906323b872dd90608401611101565b50505050565b600080602060008451602086016000885af1806112ed576040513d6000823e3d81fd5b50506000513d91508115611305578060011415611312565b6001600160a01b0384163b155b156112c457604051635274afe760e01b81526001600160a01b0385166004820152602401610419565b600054600160a01b900460ff1661075157604051638dfc202b60e01b815260040160405180910390fd5b600081815b84518110156113aa5761139682868381518110611389576113896116df565b60200260200101516113b2565b9150806113a2816116f5565b91505061136a565b509392505050565b60008183106113ce5760008281526020849052604090206113dd565b60008381526020839052604090205b9392505050565b6000602082840312156113f657600080fd5b813561ffff811681146113dd57600080fd5b80356001600160601b038116811461141f57600080fd5b919050565b6000806000806080858703121561143a57600080fd5b843593506020850135925061145160408601611408565b915061145f60608601611408565b905092959194509250565b80356001600160a01b038116811461141f57600080fd5b6000806040838503121561149457600080fd5b823591506114a46020840161146a565b90509250929050565b6000602082840312156114bf57600080fd5b5035919050565b634e487b7160e01b600052602160045260246000fd5b67ffffffffffffffff888116825287811660208301528616604082015260e081016003861061151b57634e487b7160e01b600052602160045260246000fd5b606082019590955260808101939093526001600160601b0391821660a08401521660c0909101529392505050565b60008060008060006080868803121561156157600080fd5b853594506115716020870161146a565b935061157f60408701611408565b9250606086013567ffffffffffffffff8082111561159c57600080fd5b818801915088601f8301126115b057600080fd5b8135818111156115bf57600080fd5b8960208260051b85010111156115d457600080fd5b9699959850939650602001949392505050565b6000602082840312156115f957600080fd5b6113dd8261146a565b634e487b7160e01b600052601160045260246000fd5b6001600160601b0381811683821601908082111561163857611638611602565b5092915050565b6001600160601b0381811683821602808216919082811461166257611662611602565b505092915050565b60006001600160601b038084168061169257634e487b7160e01b600052601260045260246000fd5b92169190910492915050565b6001600160601b0382811682821603908082111561163857611638611602565b67ffffffffffffffff81811683821601908082111561163857611638611602565b634e487b7160e01b600052603260045260246000fd5b60006001820161170757611707611602565b506001019056fea264697066735822122019c5917c05ffd75d71ee0c958c45f9aabee37614c03bc459fe0d3addd16886e264736f6c63430008140033","opcodes":"PUSH1 0xA0 PUSH1 0x40 MSTORE PUSH1 0x3 DUP1 SLOAD PUSH2 0xFFFF PUSH1 0xA0 SHL NOT AND PUSH1 0x7D PUSH1 0xA2 SHL OR SWAP1 SSTORE CALLVALUE DUP1 ISZERO PUSH3 0x25 JUMPI PUSH1 0x0 DUP1 REVERT JUMPDEST POP PUSH1 0x40 MLOAD PUSH3 0x19F2 CODESIZE SUB DUP1 PUSH3 0x19F2 DUP4 CODECOPY DUP2 ADD PUSH1 0x40 DUP2 SWAP1 MSTORE PUSH3 0x48 SWAP2 PUSH3 0x22C JUMP JUMPDEST CALLER DUP1 PUSH3 0x70 JUMPI PUSH1 0x40 MLOAD PUSH4 0x1E4FBDF7 PUSH1 0xE0 SHL DUP2 MSTORE PUSH1 0x0 PUSH1 0x4 DUP3 ADD MSTORE PUSH1 0x24 ADD JUMPDEST PUSH1 0x40 MLOAD DUP1 SWAP2 SUB SWAP1 REVERT JUMPDEST PUSH3 0x7B DUP2 PUSH3 0x1BF JUMP JUMPDEST POP PUSH1 0x1 DUP1 SSTORE PUSH1 0x1 PUSH1 0x1 PUSH1 0xA0 SHL SUB DUP4 AND PUSH3 0xD8 JUMPI PUSH1 0x40 MLOAD PUSH3 0x461BCD PUSH1 0xE5 SHL DUP2 MSTORE PUSH1 0x20 PUSH1 0x4 DUP3 ADD MSTORE PUSH1 0x15 PUSH1 0x24 DUP3 ADD MSTORE PUSH32 0x496E76616C696420746F6B656E20616464726573730000000000000000000000 PUSH1 0x44 DUP3 ADD MSTORE PUSH1 0x64 ADD PUSH3 0x67 JUMP JUMPDEST PUSH1 0x1 PUSH1 0x1 PUSH1 0xA0 SHL SUB DUP3 AND PUSH3 0x130 JUMPI PUSH1 0x40 MLOAD PUSH3 0x461BCD PUSH1 0xE5 SHL DUP2 MSTORE PUSH1 0x20 PUSH1 0x4 DUP3 ADD MSTORE PUSH1 0x18 PUSH1 0x24 DUP3 ADD MSTORE PUSH32 0x496E76616C6964206F70657261746F7220616464726573730000000000000000 PUSH1 0x44 DUP3 ADD MSTORE PUSH1 0x64 ADD PUSH3 0x67 JUMP JUMPDEST PUSH1 0x1 PUSH1 0x1 PUSH1 0xA0 SHL SUB DUP2 AND PUSH3 0x188 JUMPI PUSH1 0x40 MLOAD PUSH3 0x461BCD PUSH1 0xE5 SHL DUP2 MSTORE PUSH1 0x20 PUSH1 0x4 DUP3 ADD MSTORE PUSH1 0x1D PUSH1 0x24 DUP3 ADD MSTORE PUSH32 0x496E76616C69642066656520726563697069656E742061646472657373000000 PUSH1 0x44 DUP3 ADD MSTORE PUSH1 0x64 ADD PUSH3 0x67 JUMP JUMPDEST PUSH1 0x1 PUSH1 0x1 PUSH1 0xA0 SHL SUB SWAP3 DUP4 AND PUSH1 0x80 MSTORE PUSH1 0x2 DUP1 SLOAD SWAP3 DUP5 AND PUSH1 0x1 PUSH1 0x1 PUSH1 0xA0 SHL SUB NOT SWAP4 DUP5 AND OR SWAP1 SSTORE PUSH1 0x3 DUP1 SLOAD SWAP2 SWAP1 SWAP4 AND SWAP2 AND OR SWAP1 SSTORE PUSH3 0x276 JUMP JUMPDEST PUSH1 0x0 DUP1 SLOAD PUSH1 0x1 PUSH1 0x1 PUSH1 0xA0 SHL SUB DUP4 DUP2 AND PUSH1 0x1 PUSH1 0x1 PUSH1 0xA0 SHL SUB NOT DUP4 AND DUP2 OR DUP5 SSTORE PUSH1 0x40 MLOAD SWAP2 SWAP1 SWAP3 AND SWAP3 DUP4 SWAP2 PUSH32 0x8BE0079C531659141344CD1FD0A4F28419497F9722A3DAAFE3B4186F6B6457E0 SWAP2 SWAP1 LOG3 POP POP JUMP JUMPDEST DUP1 MLOAD PUSH1 0x1 PUSH1 0x1 PUSH1 0xA0 SHL SUB DUP2 AND DUP2 EQ PUSH3 0x227 JUMPI PUSH1 0x0 DUP1 REVERT JUMPDEST SWAP2 SWAP1 POP JUMP JUMPDEST PUSH1 0x0 DUP1 PUSH1 0x0 PUSH1 0x60 DUP5 DUP7 SUB SLT ISZERO PUSH3 0x242 JUMPI PUSH1 0x0 DUP1 REVERT JUMPDEST PUSH3 0x24D DUP5 PUSH3 0x20F JUMP JUMPDEST SWAP3 POP PUSH3 0x25D PUSH1 0x20 DUP6 ADD PUSH3 0x20F JUMP JUMPDEST SWAP2 POP PUSH3 0x26D PUSH1 0x40 DUP6 ADD PUSH3 0x20F JUMP JUMPDEST SWAP1 POP SWAP3 POP SWAP3 POP SWAP3 JUMP JUMPDEST PUSH1 0x80 MLOAD PUSH2 0x1744 PUSH3 0x2AE PUSH1 0x0 CODECOPY PUSH1 0x0 DUP2 DUP2 PUSH2 0x3AE ADD MSTORE DUP2 DUP2 PUSH2 0x6BC ADD MSTORE DUP2 DUP2 PUSH2 0x9F8 ADD MSTORE DUP2 DUP2 PUSH2 0xC31 ADD MSTORE PUSH2 0xDA3 ADD MSTORE PUSH2 0x1744 PUSH1 0x0 RETURN INVALID PUSH1 0x80 PUSH1 0x40 MSTORE CALLVALUE DUP1 ISZERO PUSH2 0x10 JUMPI PUSH1 0x0 DUP1 REVERT JUMPDEST POP PUSH1 0x4 CALLDATASIZE LT PUSH2 0x14D JUMPI PUSH1 0x0 CALLDATALOAD PUSH1 0xE0 SHR DUP1 PUSH4 0x715018A6 GT PUSH2 0xC3 JUMPI DUP1 PUSH4 0xDCDFD05E GT PUSH2 0x7C JUMPI DUP1 PUSH4 0xDCDFD05E EQ PUSH2 0x353 JUMPI DUP1 PUSH4 0xE74B981B EQ PUSH2 0x366 JUMPI DUP1 PUSH4 0xE9173B3A EQ PUSH2 0x379 JUMPI DUP1 PUSH4 0xEC6925A7 EQ PUSH2 0x38C JUMPI DUP1 PUSH4 0xF2FDE38B EQ PUSH2 0x396 JUMPI DUP1 PUSH4 0xFC0C546A EQ PUSH2 0x3A9 JUMPI PUSH1 0x0 DUP1 REVERT JUMPDEST DUP1 PUSH4 0x715018A6 EQ PUSH2 0x2DE JUMPI DUP1 PUSH4 0x8456CB59 EQ PUSH2 0x2E6 JUMPI DUP1 PUSH4 0x8DA5CB5B EQ PUSH2 0x2EE JUMPI DUP1 PUSH4 0x99B1EB2E EQ PUSH2 0x2FF JUMPI DUP1 PUSH4 0x9EC95C50 EQ PUSH2 0x32D JUMPI DUP1 PUSH4 0xB3AB15FB EQ PUSH2 0x340 JUMPI PUSH1 0x0 DUP1 REVERT JUMPDEST DUP1 PUSH4 0x3F4BA83A GT PUSH2 0x115 JUMPI DUP1 PUSH4 0x3F4BA83A EQ PUSH2 0x1FC JUMPI DUP1 PUSH4 0x46904840 EQ PUSH2 0x204 JUMPI DUP1 PUSH4 0x570CA735 EQ PUSH2 0x22F JUMPI DUP1 PUSH4 0x5C5C8382 EQ PUSH2 0x242 JUMPI DUP1 PUSH4 0x5C975ABB EQ PUSH2 0x24B JUMPI DUP1 PUSH4 0x6E8FB4C6 EQ PUSH2 0x25D JUMPI PUSH1 0x0 DUP1 REVERT JUMPDEST DUP1 PUSH4 0x23B1FC9 EQ PUSH2 0x152 JUMPI DUP1 PUSH4 0x29C58F6 EQ PUSH2 0x167 JUMPI DUP1 PUSH4 0x120AA877 EQ PUSH2 0x17A JUMPI DUP1 PUSH4 0x14717E38 EQ PUSH2 0x1BD JUMPI DUP1 PUSH4 0x24A9D853 EQ PUSH2 0x1D4 JUMPI JUMPDEST PUSH1 0x0 DUP1 REVERT JUMPDEST PUSH2 0x165 PUSH2 0x160 CALLDATASIZE PUSH1 0x4 PUSH2 0x13E4 JUMP JUMPDEST PUSH2 0x3D0 JUMP JUMPDEST STOP JUMPDEST PUSH2 0x165 PUSH2 0x175 CALLDATASIZE PUSH1 0x4 PUSH2 0x1424 JUMP JUMPDEST PUSH2 0x444 JUMP JUMPDEST PUSH2 0x1A8 PUSH2 0x188 CALLDATASIZE PUSH1 0x4 PUSH2 0x1481 JUMP JUMPDEST PUSH1 0x5 PUSH1 0x20 SWAP1 DUP2 MSTORE PUSH1 0x0 SWAP3 DUP4 MSTORE PUSH1 0x40 DUP1 DUP5 KECCAK256 SWAP1 SWAP2 MSTORE SWAP1 DUP3 MSTORE SWAP1 KECCAK256 SLOAD PUSH1 0xFF AND DUP2 JUMP JUMPDEST PUSH1 0x40 MLOAD SWAP1 ISZERO ISZERO DUP2 MSTORE PUSH1 0x20 ADD JUMPDEST PUSH1 0x40 MLOAD DUP1 SWAP2 SUB SWAP1 RETURN JUMPDEST PUSH2 0x1C6 PUSH2 0x258 DUP2 JUMP JUMPDEST PUSH1 0x40 MLOAD SWAP1 DUP2 MSTORE PUSH1 0x20 ADD PUSH2 0x1B4 JUMP JUMPDEST PUSH1 0x3 SLOAD PUSH2 0x1E9 SWAP1 PUSH1 0x1 PUSH1 0xA0 SHL SWAP1 DIV PUSH2 0xFFFF AND DUP2 JUMP JUMPDEST PUSH1 0x40 MLOAD PUSH2 0xFFFF SWAP1 SWAP2 AND DUP2 MSTORE PUSH1 0x20 ADD PUSH2 0x1B4 JUMP JUMPDEST PUSH2 0x165 PUSH2 0x741 JUMP JUMPDEST PUSH1 0x3 SLOAD PUSH2 0x217 SWAP1 PUSH1 0x1 PUSH1 0x1 PUSH1 0xA0 SHL SUB AND DUP2 JUMP JUMPDEST PUSH1 0x40 MLOAD PUSH1 0x1 PUSH1 0x1 PUSH1 0xA0 SHL SUB SWAP1 SWAP2 AND DUP2 MSTORE PUSH1 0x20 ADD PUSH2 0x1B4 JUMP JUMPDEST PUSH1 0x2 SLOAD PUSH2 0x217 SWAP1 PUSH1 0x1 PUSH1 0x1 PUSH1 0xA0 SHL SUB AND DUP2 JUMP JUMPDEST PUSH2 0x1C6 PUSH2 0x12C DUP2 JUMP JUMPDEST PUSH1 0x0 SLOAD PUSH1 0x1 PUSH1 0xA0 SHL SWAP1 DIV PUSH1 0xFF AND PUSH2 0x1A8 JUMP JUMPDEST PUSH2 0x2CB PUSH2 0x26B CALLDATASIZE PUSH1 0x4 PUSH2 0x14AD JUMP JUMPDEST PUSH1 0x4 PUSH1 0x20 MSTORE PUSH1 0x0 SWAP1 DUP2 MSTORE PUSH1 0x40 SWAP1 KECCAK256 DUP1 SLOAD PUSH1 0x1 DUP3 ADD SLOAD PUSH1 0x2 SWAP1 SWAP3 ADD SLOAD PUSH8 0xFFFFFFFFFFFFFFFF DUP1 DUP4 AND SWAP4 PUSH1 0x1 PUSH1 0x40 SHL DUP5 DIV DUP3 AND SWAP4 PUSH1 0x1 PUSH1 0x80 SHL DUP2 DIV SWAP1 SWAP3 AND SWAP3 PUSH1 0x1 PUSH1 0xC0 SHL SWAP1 SWAP3 DIV PUSH1 0xFF AND SWAP2 PUSH1 0x1 PUSH1 0x1 PUSH1 0x60 SHL SUB DUP1 DUP3 AND SWAP2 PUSH1 0x1 PUSH1 0x60 SHL SWAP1 DIV AND DUP8 JUMP JUMPDEST PUSH1 0x40 MLOAD PUSH2 0x1B4 SWAP8 SWAP7 SWAP6 SWAP5 SWAP4 SWAP3 SWAP2 SWAP1 PUSH2 0x14DC JUMP JUMPDEST PUSH2 0x165 PUSH2 0x753 JUMP JUMPDEST PUSH2 0x165 PUSH2 0x765 JUMP JUMPDEST PUSH1 0x0 SLOAD PUSH1 0x1 PUSH1 0x1 PUSH1 0xA0 SHL SUB AND PUSH2 0x217 JUMP JUMPDEST PUSH2 0x1A8 PUSH2 0x30D CALLDATASIZE PUSH1 0x4 PUSH2 0x1481 JUMP JUMPDEST PUSH1 0x6 PUSH1 0x20 SWAP1 DUP2 MSTORE PUSH1 0x0 SWAP3 DUP4 MSTORE PUSH1 0x40 DUP1 DUP5 KECCAK256 SWAP1 SWAP2 MSTORE SWAP1 DUP3 MSTORE SWAP1 KECCAK256 SLOAD PUSH1 0xFF AND DUP2 JUMP JUMPDEST PUSH2 0x165 PUSH2 0x33B CALLDATASIZE PUSH1 0x4 PUSH2 0x1549 JUMP JUMPDEST PUSH2 0x775 JUMP JUMPDEST PUSH2 0x165 PUSH2 0x34E CALLDATASIZE PUSH1 0x4 PUSH2 0x15E7 JUMP JUMPDEST PUSH2 0xA89 JUMP JUMPDEST PUSH2 0x165 PUSH2 0x361 CALLDATASIZE PUSH1 0x4 PUSH2 0x14AD JUMP JUMPDEST PUSH2 0xAFC JUMP JUMPDEST PUSH2 0x165 PUSH2 0x374 CALLDATASIZE PUSH1 0x4 PUSH2 0x15E7 JUMP JUMPDEST PUSH2 0xC95 JUMP JUMPDEST PUSH2 0x165 PUSH2 0x387 CALLDATASIZE PUSH1 0x4 PUSH2 0x14AD JUMP JUMPDEST PUSH2 0xD0D JUMP JUMPDEST PUSH2 0x1C6 PUSH3 0xF4240 DUP2 JUMP JUMPDEST PUSH2 0x165 PUSH2 0x3A4 CALLDATASIZE PUSH1 0x4 PUSH2 0x15E7 JUMP JUMPDEST PUSH2 0x106C JUMP JUMPDEST PUSH2 0x217 PUSH32 0x0 DUP2 JUMP JUMPDEST PUSH2 0x3D8 PUSH2 0x10A7 JUMP JUMPDEST PUSH2 0x3E8 DUP2 PUSH2 0xFFFF AND GT ISZERO PUSH2 0x422 JUMPI PUSH1 0x40 MLOAD PUSH3 0x461BCD PUSH1 0xE5 SHL DUP2 MSTORE PUSH1 0x20 PUSH1 0x4 DUP3 ADD MSTORE PUSH1 0xC PUSH1 0x24 DUP3 ADD MSTORE PUSH12 0x8CCACA40E8DEDE40D0D2CED PUSH1 0xA3 SHL PUSH1 0x44 DUP3 ADD MSTORE PUSH1 0x64 ADD JUMPDEST PUSH1 0x40 MLOAD DUP1 SWAP2 SUB SWAP1 REVERT JUMPDEST PUSH1 0x3 DUP1 SLOAD PUSH2 0xFFFF SWAP1 SWAP3 AND PUSH1 0x1 PUSH1 0xA0 SHL MUL PUSH2 0xFFFF PUSH1 0xA0 SHL NOT SWAP1 SWAP3 AND SWAP2 SWAP1 SWAP2 OR SWAP1 SSTORE JUMP JUMPDEST PUSH1 0x2 SLOAD PUSH1 0x1 PUSH1 0x1 PUSH1 0xA0 SHL SUB AND CALLER EQ PUSH2 0x48E JUMPI PUSH1 0x40 MLOAD PUSH3 0x461BCD PUSH1 0xE5 SHL DUP2 MSTORE PUSH1 0x20 PUSH1 0x4 DUP3 ADD MSTORE PUSH1 0xD PUSH1 0x24 DUP3 ADD MSTORE PUSH13 0x27B7363C9037B832B930BA37B9 PUSH1 0x99 SHL PUSH1 0x44 DUP3 ADD MSTORE PUSH1 0x64 ADD PUSH2 0x419 JUMP JUMPDEST PUSH1 0x1 PUSH1 0x0 DUP6 DUP2 MSTORE PUSH1 0x4 PUSH1 0x20 MSTORE PUSH1 0x40 SWAP1 KECCAK256 SLOAD PUSH1 0x1 PUSH1 0xC0 SHL SWAP1 DIV PUSH1 0xFF AND PUSH1 0x2 DUP2 GT ISZERO PUSH2 0x4BA JUMPI PUSH2 0x4BA PUSH2 0x14C6 JUMP JUMPDEST EQ PUSH2 0x4FA JUMPI PUSH1 0x40 MLOAD PUSH3 0x461BCD PUSH1 0xE5 SHL DUP2 MSTORE PUSH1 0x20 PUSH1 0x4 DUP3 ADD MSTORE PUSH1 0x10 PUSH1 0x24 DUP3 ADD MSTORE PUSH16 0x4C6F626279206E6F7420616374697665 PUSH1 0x80 SHL PUSH1 0x44 DUP3 ADD MSTORE PUSH1 0x64 ADD PUSH2 0x419 JUMP JUMPDEST PUSH1 0x0 DUP5 DUP2 MSTORE PUSH1 0x4 PUSH1 0x20 MSTORE PUSH1 0x40 SWAP1 KECCAK256 SLOAD PUSH1 0x1 PUSH1 0x40 SHL SWAP1 DIV PUSH8 0xFFFFFFFFFFFFFFFF AND TIMESTAMP LT ISZERO PUSH2 0x55B JUMPI PUSH1 0x40 MLOAD PUSH3 0x461BCD PUSH1 0xE5 SHL DUP2 MSTORE PUSH1 0x20 PUSH1 0x4 DUP3 ADD MSTORE PUSH1 0xF PUSH1 0x24 DUP3 ADD MSTORE PUSH15 0x131BD8989E481B9BDD08195B991959 PUSH1 0x8A SHL PUSH1 0x44 DUP3 ADD MSTORE PUSH1 0x64 ADD PUSH2 0x419 JUMP JUMPDEST PUSH1 0x0 DUP5 DUP2 MSTORE PUSH1 0x4 PUSH1 0x20 MSTORE PUSH1 0x40 SWAP1 KECCAK256 PUSH1 0x2 ADD SLOAD PUSH1 0x1 PUSH1 0x1 PUSH1 0x60 SHL SUB AND PUSH2 0x580 DUP3 DUP5 PUSH2 0x1618 JUMP JUMPDEST PUSH1 0x1 PUSH1 0x1 PUSH1 0x60 SHL SUB AND EQ PUSH2 0x5C8 JUMPI PUSH1 0x40 MLOAD PUSH3 0x461BCD PUSH1 0xE5 SHL DUP2 MSTORE PUSH1 0x20 PUSH1 0x4 DUP3 ADD MSTORE PUSH1 0xF PUSH1 0x24 DUP3 ADD MSTORE PUSH15 0xA0C2F2DEEAE840DAD2E6DAC2E8C6D PUSH1 0x8B SHL PUSH1 0x44 DUP3 ADD MSTORE PUSH1 0x64 ADD PUSH2 0x419 JUMP JUMPDEST PUSH1 0x3 SLOAD PUSH1 0x0 SWAP1 PUSH2 0x2710 SWAP1 PUSH2 0x5E7 SWAP1 PUSH1 0x1 PUSH1 0xA0 SHL SWAP1 DIV PUSH2 0xFFFF AND DUP6 PUSH2 0x163F JUMP JUMPDEST PUSH2 0x5F1 SWAP2 SWAP1 PUSH2 0x166A JUMP JUMPDEST SWAP1 POP PUSH2 0x5FE PUSH1 0x1 DUP3 PUSH2 0x169E JUMP JUMPDEST PUSH1 0x1 PUSH1 0x1 PUSH1 0x60 SHL SUB AND DUP3 PUSH1 0x1 PUSH1 0x1 PUSH1 0x60 SHL SUB AND LT ISZERO DUP1 ISZERO PUSH2 0x63B JUMPI POP PUSH2 0x625 DUP2 PUSH1 0x1 PUSH2 0x1618 JUMP JUMPDEST PUSH1 0x1 PUSH1 0x1 PUSH1 0x60 SHL SUB AND DUP3 PUSH1 0x1 PUSH1 0x1 PUSH1 0x60 SHL SUB AND GT ISZERO JUMPDEST PUSH2 0x676 JUMPI PUSH1 0x40 MLOAD PUSH3 0x461BCD PUSH1 0xE5 SHL DUP2 MSTORE PUSH1 0x20 PUSH1 0x4 DUP3 ADD MSTORE PUSH1 0xC PUSH1 0x24 DUP3 ADD MSTORE PUSH12 0x8CCACA40DAD2E6DAC2E8C6D PUSH1 0xA3 SHL PUSH1 0x44 DUP3 ADD MSTORE PUSH1 0x64 ADD PUSH2 0x419 JUMP JUMPDEST PUSH1 0x0 DUP6 DUP2 MSTORE PUSH1 0x4 PUSH1 0x20 MSTORE PUSH1 0x40 SWAP1 KECCAK256 PUSH1 0x1 DUP2 ADD DUP6 SWAP1 SSTORE DUP1 SLOAD PUSH1 0xFF PUSH1 0xC0 SHL NOT AND PUSH1 0x1 PUSH1 0xC1 SHL OR SWAP1 SSTORE PUSH1 0x1 PUSH1 0x1 PUSH1 0x60 SHL SUB DUP3 AND ISZERO PUSH2 0x6EE JUMPI PUSH1 0x3 SLOAD PUSH2 0x6EE SWAP1 PUSH1 0x1 PUSH1 0x1 PUSH1 0xA0 SHL SUB PUSH32 0x0 DUP2 AND SWAP2 AND PUSH1 0x1 PUSH1 0x1 PUSH1 0x60 SHL SUB DUP6 AND PUSH2 0x10D4 JUMP JUMPDEST PUSH1 0x40 DUP1 MLOAD DUP6 DUP2 MSTORE PUSH1 0x1 PUSH1 0x1 PUSH1 0x60 SHL SUB DUP6 DUP2 AND PUSH1 0x20 DUP4 ADD MSTORE DUP5 AND DUP2 DUP4 ADD MSTORE SWAP1 MLOAD DUP7 SWAP2 PUSH32 0xF94A182A3AA555C6FB7D5B86AC0F641B5CCB3464C17556D0A11C50F1D96F7B7B SWAP2 SWAP1 DUP2 SWAP1 SUB PUSH1 0x60 ADD SWAP1 LOG2 POP POP POP POP POP JUMP JUMPDEST PUSH2 0x749 PUSH2 0x10A7 JUMP JUMPDEST PUSH2 0x751 PUSH2 0x1138 JUMP JUMPDEST JUMP JUMPDEST PUSH2 0x75B PUSH2 0x10A7 JUMP JUMPDEST PUSH2 0x751 PUSH1 0x0 PUSH2 0x118D JUMP JUMPDEST PUSH2 0x76D PUSH2 0x10A7 JUMP JUMPDEST PUSH2 0x751 PUSH2 0x11DD JUMP JUMPDEST PUSH2 0x77D PUSH2 0x1220 JUMP JUMPDEST PUSH1 0x2 PUSH1 0x0 DUP7 DUP2 MSTORE PUSH1 0x4 PUSH1 0x20 MSTORE PUSH1 0x40 SWAP1 KECCAK256 SLOAD PUSH1 0x1 PUSH1 0xC0 SHL SWAP1 DIV PUSH1 0xFF AND PUSH1 0x2 DUP2 GT ISZERO PUSH2 0x7A9 JUMPI PUSH2 0x7A9 PUSH2 0x14C6 JUMP JUMPDEST EQ PUSH2 0x7EC JUMPI PUSH1 0x40 MLOAD PUSH3 0x461BCD PUSH1 0xE5 SHL DUP2 MSTORE PUSH1 0x20 PUSH1 0x4 DUP3 ADD MSTORE PUSH1 0x13 PUSH1 0x24 DUP3 ADD MSTORE PUSH19 0x131BD8989E481B9BDD08199A5B985B1A5E9959 PUSH1 0x6A SHL PUSH1 0x44 DUP3 ADD MSTORE PUSH1 0x64 ADD PUSH2 0x419 JUMP JUMPDEST PUSH1 0x0 DUP6 DUP2 MSTORE PUSH1 0x5 PUSH1 0x20 SWAP1 DUP2 MSTORE PUSH1 0x40 DUP1 DUP4 KECCAK256 PUSH1 0x1 PUSH1 0x1 PUSH1 0xA0 SHL SUB DUP9 AND DUP5 MSTORE SWAP1 SWAP2 MSTORE SWAP1 KECCAK256 SLOAD PUSH1 0xFF AND ISZERO PUSH2 0x851 JUMPI PUSH1 0x40 MLOAD PUSH3 0x461BCD PUSH1 0xE5 SHL DUP2 MSTORE PUSH1 0x20 PUSH1 0x4 DUP3 ADD MSTORE PUSH1 0xF PUSH1 0x24 DUP3 ADD MSTORE PUSH15 0x105B1C9958591E4818DB185A5B5959 PUSH1 0x8A SHL PUSH1 0x44 DUP3 ADD MSTORE PUSH1 0x64 ADD PUSH2 0x419 JUMP JUMPDEST CALLER PUSH1 0x1 PUSH1 0x1 PUSH1 0xA0 SHL SUB DUP6 AND EQ PUSH2 0x89A JUMPI PUSH1 0x40 MLOAD PUSH3 0x461BCD PUSH1 0xE5 SHL DUP2 MSTORE PUSH1 0x20 PUSH1 0x4 DUP3 ADD MSTORE PUSH1 0xE PUSH1 0x24 DUP3 ADD MSTORE PUSH14 0x4E6F7420796F757220636C61696D PUSH1 0x90 SHL PUSH1 0x44 DUP3 ADD MSTORE PUSH1 0x64 ADD PUSH2 0x419 JUMP JUMPDEST PUSH1 0x40 DUP1 MLOAD PUSH1 0x1 PUSH1 0x1 PUSH1 0xA0 SHL SUB DUP7 AND PUSH1 0x20 DUP3 ADD MSTORE PUSH1 0x1 PUSH1 0x1 PUSH1 0x60 SHL SUB DUP6 AND SWAP2 DUP2 ADD SWAP2 SWAP1 SWAP2 MSTORE PUSH1 0x0 SWAP1 PUSH1 0x60 ADD PUSH1 0x40 MLOAD PUSH1 0x20 DUP2 DUP4 SUB SUB DUP2 MSTORE SWAP1 PUSH1 0x40 MSTORE DUP1 MLOAD SWAP1 PUSH1 0x20 ADD KECCAK256 SWAP1 POP PUSH2 0x92A DUP4 DUP4 DUP1 DUP1 PUSH1 0x20 MUL PUSH1 0x20 ADD PUSH1 0x40 MLOAD SWAP1 DUP2 ADD PUSH1 0x40 MSTORE DUP1 SWAP4 SWAP3 SWAP2 SWAP1 DUP2 DUP2 MSTORE PUSH1 0x20 ADD DUP4 DUP4 PUSH1 0x20 MUL DUP1 DUP3 DUP5 CALLDATACOPY PUSH1 0x0 SWAP3 ADD DUP3 SWAP1 MSTORE POP DUP12 DUP2 MSTORE PUSH1 0x4 PUSH1 0x20 MSTORE PUSH1 0x40 SWAP1 KECCAK256 PUSH1 0x1 ADD SLOAD SWAP3 POP DUP6 SWAP2 POP PUSH2 0x124A SWAP1 POP JUMP JUMPDEST PUSH2 0x966 JUMPI PUSH1 0x40 MLOAD PUSH3 0x461BCD PUSH1 0xE5 SHL DUP2 MSTORE PUSH1 0x20 PUSH1 0x4 DUP3 ADD MSTORE PUSH1 0xD PUSH1 0x24 DUP3 ADD MSTORE PUSH13 0x24B73B30B634B210383937B7B3 PUSH1 0x99 SHL PUSH1 0x44 DUP3 ADD MSTORE PUSH1 0x64 ADD PUSH2 0x419 JUMP JUMPDEST PUSH1 0x0 DUP7 DUP2 MSTORE PUSH1 0x5 PUSH1 0x20 SWAP1 DUP2 MSTORE PUSH1 0x40 DUP1 DUP4 KECCAK256 PUSH1 0x1 PUSH1 0x1 PUSH1 0xA0 SHL SUB DUP10 AND DUP5 MSTORE DUP3 MSTORE DUP1 DUP4 KECCAK256 DUP1 SLOAD PUSH1 0xFF NOT AND PUSH1 0x1 OR SWAP1 SSTORE DUP9 DUP4 MSTORE PUSH1 0x4 SWAP1 SWAP2 MSTORE SWAP1 KECCAK256 PUSH1 0x2 ADD DUP1 SLOAD DUP6 SWAP2 SWAP1 PUSH1 0xC SWAP1 PUSH2 0x9C4 SWAP1 DUP5 SWAP1 PUSH1 0x1 PUSH1 0x1 PUSH1 0x60 SHL SUB PUSH1 0x1 PUSH1 0x60 SHL SWAP1 SWAP2 DIV AND PUSH2 0x1618 JUMP JUMPDEST SWAP3 POP PUSH2 0x100 EXP DUP2 SLOAD DUP2 PUSH1 0x1 PUSH1 0x1 PUSH1 0x60 SHL SUB MUL NOT AND SWAP1 DUP4 PUSH1 0x1 PUSH1 0x1 PUSH1 0x60 SHL SUB AND MUL OR SWAP1 SSTORE POP PUSH2 0xA2F DUP6 DUP6 PUSH1 0x1 PUSH1 0x1 PUSH1 0x60 SHL SUB AND PUSH32 0x0 PUSH1 0x1 PUSH1 0x1 PUSH1 0xA0 SHL SUB AND PUSH2 0x10D4 SWAP1 SWAP3 SWAP2 SWAP1 PUSH4 0xFFFFFFFF AND JUMP JUMPDEST PUSH1 0x40 MLOAD PUSH1 0x1 PUSH1 0x1 PUSH1 0x60 SHL SUB DUP6 AND DUP2 MSTORE PUSH1 0x1 PUSH1 0x1 PUSH1 0xA0 SHL SUB DUP7 AND SWAP1 DUP8 SWAP1 PUSH32 0xAD83AD6EF8ABB1529A9D4BDB6B9D2BDDCF34DC334EF5E99677DB83A2CAE98FA4 SWAP1 PUSH1 0x20 ADD PUSH1 0x40 MLOAD DUP1 SWAP2 SUB SWAP1 LOG3 POP PUSH2 0xA82 PUSH1 0x1 DUP1 SSTORE JUMP JUMPDEST POP POP POP POP POP JUMP JUMPDEST PUSH2 0xA91 PUSH2 0x10A7 JUMP JUMPDEST PUSH1 0x1 PUSH1 0x1 PUSH1 0xA0 SHL SUB DUP2 AND PUSH2 0xADA JUMPI PUSH1 0x40 MLOAD PUSH3 0x461BCD PUSH1 0xE5 SHL DUP2 MSTORE PUSH1 0x20 PUSH1 0x4 DUP3 ADD MSTORE PUSH1 0x10 PUSH1 0x24 DUP3 ADD MSTORE PUSH16 0x24B73B30B634B21037B832B930BA37B9 PUSH1 0x81 SHL PUSH1 0x44 DUP3 ADD MSTORE PUSH1 0x64 ADD PUSH2 0x419 JUMP JUMPDEST PUSH1 0x2 DUP1 SLOAD PUSH1 0x1 PUSH1 0x1 PUSH1 0xA0 SHL SUB NOT AND PUSH1 0x1 PUSH1 0x1 PUSH1 0xA0 SHL SUB SWAP3 SWAP1 SWAP3 AND SWAP2 SWAP1 SWAP2 OR SWAP1 SSTORE JUMP JUMPDEST PUSH2 0xB04 PUSH2 0x1220 JUMP JUMPDEST PUSH1 0x0 DUP2 DUP2 MSTORE PUSH1 0x4 PUSH1 0x20 MSTORE PUSH1 0x40 SWAP1 KECCAK256 PUSH1 0x1 DUP2 SLOAD PUSH1 0x1 PUSH1 0xC0 SHL SWAP1 DIV PUSH1 0xFF AND PUSH1 0x2 DUP2 GT ISZERO PUSH2 0xB31 JUMPI PUSH2 0xB31 PUSH2 0x14C6 JUMP JUMPDEST EQ PUSH2 0xB71 JUMPI PUSH1 0x40 MLOAD PUSH3 0x461BCD PUSH1 0xE5 SHL DUP2 MSTORE PUSH1 0x20 PUSH1 0x4 DUP3 ADD MSTORE PUSH1 0x10 PUSH1 0x24 DUP3 ADD MSTORE PUSH16 0x4C6F626279206E6F7420616374697665 PUSH1 0x80 SHL PUSH1 0x44 DUP3 ADD MSTORE PUSH1 0x64 ADD PUSH2 0x419 JUMP JUMPDEST DUP1 SLOAD PUSH1 0x1 PUSH1 0x80 SHL SWAP1 DIV PUSH8 0xFFFFFFFFFFFFFFFF AND TIMESTAMP GT PUSH2 0xBC8 JUMPI PUSH1 0x40 MLOAD PUSH3 0x461BCD PUSH1 0xE5 SHL DUP2 MSTORE PUSH1 0x20 PUSH1 0x4 DUP3 ADD MSTORE PUSH1 0x13 PUSH1 0x24 DUP3 ADD MSTORE PUSH19 0x111958591B1A5B99481B9BDD081C185CDCD959 PUSH1 0x6A SHL PUSH1 0x44 DUP3 ADD MSTORE PUSH1 0x64 ADD PUSH2 0x419 JUMP JUMPDEST PUSH1 0x0 DUP3 DUP2 MSTORE PUSH1 0x6 PUSH1 0x20 SWAP1 DUP2 MSTORE PUSH1 0x40 DUP1 DUP4 KECCAK256 CALLER DUP5 MSTORE SWAP1 SWAP2 MSTORE SWAP1 KECCAK256 SLOAD PUSH1 0xFF AND PUSH2 0xC24 JUMPI PUSH1 0x40 MLOAD PUSH3 0x461BCD PUSH1 0xE5 SHL DUP2 MSTORE PUSH1 0x20 PUSH1 0x4 DUP3 ADD MSTORE PUSH1 0x10 PUSH1 0x24 DUP3 ADD MSTORE PUSH16 0x139BC819195C1BDCDA5D08199BDD5B99 PUSH1 0x82 SHL PUSH1 0x44 DUP3 ADD MSTORE PUSH1 0x64 ADD PUSH2 0x419 JUMP JUMPDEST PUSH2 0xC5B PUSH1 0x1 PUSH1 0x1 PUSH1 0xA0 SHL SUB PUSH32 0x0 AND CALLER PUSH3 0xF4240 PUSH2 0x10D4 JUMP JUMPDEST PUSH1 0x40 MLOAD CALLER SWAP1 DUP4 SWAP1 PUSH32 0x9DC10EDE665D3FE08611DE6AF7E048434F244DFB391FE658D575676AA09C060E SWAP1 PUSH1 0x0 SWAP1 LOG3 POP PUSH2 0xC92 PUSH1 0x1 DUP1 SSTORE JUMP JUMPDEST POP JUMP JUMPDEST PUSH2 0xC9D PUSH2 0x10A7 JUMP JUMPDEST PUSH1 0x1 PUSH1 0x1 PUSH1 0xA0 SHL SUB DUP2 AND PUSH2 0xCEB JUMPI PUSH1 0x40 MLOAD PUSH3 0x461BCD PUSH1 0xE5 SHL DUP2 MSTORE PUSH1 0x20 PUSH1 0x4 DUP3 ADD MSTORE PUSH1 0x15 PUSH1 0x24 DUP3 ADD MSTORE PUSH21 0x125B9D985B1A5908199959481C9958DA5C1A595B9D PUSH1 0x5A SHL PUSH1 0x44 DUP3 ADD MSTORE PUSH1 0x64 ADD PUSH2 0x419 JUMP JUMPDEST PUSH1 0x3 DUP1 SLOAD PUSH1 0x1 PUSH1 0x1 PUSH1 0xA0 SHL SUB NOT AND PUSH1 0x1 PUSH1 0x1 PUSH1 0xA0 SHL SUB SWAP3 SWAP1 SWAP3 AND SWAP2 SWAP1 SWAP2 OR SWAP1 SSTORE JUMP JUMPDEST PUSH2 0xD15 PUSH2 0x1260 JUMP JUMPDEST PUSH2 0xD1D PUSH2 0x1220 JUMP JUMPDEST PUSH1 0x2 PUSH1 0x0 DUP3 DUP2 MSTORE PUSH1 0x4 PUSH1 0x20 MSTORE PUSH1 0x40 SWAP1 KECCAK256 SLOAD PUSH1 0x1 PUSH1 0xC0 SHL SWAP1 DIV PUSH1 0xFF AND PUSH1 0x2 DUP2 GT ISZERO PUSH2 0xD49 JUMPI PUSH2 0xD49 PUSH2 0x14C6 JUMP JUMPDEST SUB PUSH2 0xD96 JUMPI PUSH1 0x40 MLOAD PUSH3 0x461BCD PUSH1 0xE5 SHL DUP2 MSTORE PUSH1 0x20 PUSH1 0x4 DUP3 ADD MSTORE PUSH1 0x17 PUSH1 0x24 DUP3 ADD MSTORE PUSH32 0x4C6F62627920616C72656164792066696E616C697A6564000000000000000000 PUSH1 0x44 DUP3 ADD MSTORE PUSH1 0x64 ADD PUSH2 0x419 JUMP JUMPDEST PUSH2 0xDCE PUSH1 0x1 PUSH1 0x1 PUSH1 0xA0 SHL SUB PUSH32 0x0 AND CALLER ADDRESS PUSH3 0xF4240 PUSH2 0x128B JUMP JUMPDEST PUSH1 0x0 DUP2 DUP2 MSTORE PUSH1 0x6 PUSH1 0x20 SWAP1 DUP2 MSTORE PUSH1 0x40 DUP1 DUP4 KECCAK256 CALLER DUP5 MSTORE SWAP1 SWAP2 MSTORE DUP2 KECCAK256 DUP1 SLOAD PUSH1 0xFF NOT AND PUSH1 0x1 OR SWAP1 SSTORE PUSH1 0x0 DUP3 DUP2 MSTORE PUSH1 0x4 PUSH1 0x20 MSTORE PUSH1 0x40 SWAP1 KECCAK256 SLOAD PUSH1 0x1 PUSH1 0xC0 SHL SWAP1 DIV PUSH1 0xFF AND PUSH1 0x2 DUP2 GT ISZERO PUSH2 0xE1C JUMPI PUSH2 0xE1C PUSH2 0x14C6 JUMP JUMPDEST SUB PUSH2 0xFE4 JUMPI TIMESTAMP PUSH1 0x0 PUSH2 0xE30 PUSH2 0x12C DUP4 PUSH2 0x16BE JUMP JUMPDEST SWAP1 POP PUSH1 0x0 PUSH2 0xE40 PUSH2 0x258 DUP4 PUSH2 0x16BE JUMP JUMPDEST SWAP1 POP PUSH1 0x40 MLOAD DUP1 PUSH1 0xE0 ADD PUSH1 0x40 MSTORE DUP1 DUP5 PUSH8 0xFFFFFFFFFFFFFFFF AND DUP2 MSTORE PUSH1 0x20 ADD DUP4 PUSH8 0xFFFFFFFFFFFFFFFF AND DUP2 MSTORE PUSH1 0x20 ADD DUP3 PUSH8 0xFFFFFFFFFFFFFFFF AND DUP2 MSTORE PUSH1 0x20 ADD PUSH1 0x1 PUSH1 0x2 DUP2 GT ISZERO PUSH2 0xE90 JUMPI PUSH2 0xE90 PUSH2 0x14C6 JUMP JUMPDEST DUP2 MSTORE PUSH1 0x0 PUSH1 0x20 DUP1 DUP4 ADD DUP3 SWAP1 MSTORE PUSH3 0xF4240 PUSH1 0x40 DUP1 DUP6 ADD SWAP2 SWAP1 SWAP2 MSTORE PUSH1 0x60 SWAP4 DUP5 ADD DUP4 SWAP1 MSTORE DUP9 DUP4 MSTORE PUSH1 0x4 DUP3 MSTORE SWAP2 DUP3 SWAP1 KECCAK256 DUP5 MLOAD DUP2 SLOAD SWAP3 DUP7 ADD MLOAD SWAP4 DUP7 ADD MLOAD PUSH8 0xFFFFFFFFFFFFFFFF SWAP1 DUP2 AND PUSH1 0x1 PUSH1 0x80 SHL MUL PUSH8 0xFFFFFFFFFFFFFFFF PUSH1 0x80 SHL NOT SWAP6 DUP3 AND PUSH1 0x1 PUSH1 0x40 SHL MUL PUSH16 0xFFFFFFFFFFFFFFFFFFFFFFFFFFFFFFFF NOT SWAP1 SWAP6 AND SWAP2 SWAP1 SWAP3 AND OR SWAP3 SWAP1 SWAP3 OR SWAP3 DUP4 AND DUP3 OR DUP2 SSTORE SWAP3 DUP5 ADD MLOAD SWAP2 DUP4 SWAP2 PUSH1 0xFF PUSH1 0xC0 SHL NOT AND PUSH9 0xFFFFFFFFFFFFFFFFFF PUSH1 0x80 SHL NOT SWAP1 SWAP2 AND OR PUSH1 0x1 PUSH1 0xC0 SHL DUP4 PUSH1 0x2 DUP2 GT ISZERO PUSH2 0xF4C JUMPI PUSH2 0xF4C PUSH2 0x14C6 JUMP JUMPDEST MUL OR SWAP1 SSTORE POP PUSH1 0x80 DUP3 ADD MLOAD PUSH1 0x1 DUP3 ADD SSTORE PUSH1 0xA0 DUP3 ADD MLOAD PUSH1 0x2 SWAP1 SWAP2 ADD DUP1 SLOAD PUSH1 0xC0 SWAP1 SWAP4 ADD MLOAD PUSH1 0x1 PUSH1 0x1 PUSH1 0x60 SHL SUB SWAP1 DUP2 AND PUSH1 0x1 PUSH1 0x60 SHL MUL PUSH1 0x1 PUSH1 0x1 PUSH1 0xC0 SHL SUB NOT SWAP1 SWAP5 AND SWAP3 AND SWAP2 SWAP1 SWAP2 OR SWAP2 SWAP1 SWAP2 OR SWAP1 SSTORE PUSH1 0x40 DUP1 MLOAD PUSH8 0xFFFFFFFFFFFFFFFF DUP6 DUP2 AND DUP3 MSTORE DUP5 AND PUSH1 0x20 DUP3 ADD MSTORE DUP6 SWAP2 PUSH32 0xF982295D1467944E5D401D9AC56D299EB16E1166B7ADA36F3C7452F24D286A4F SWAP2 ADD PUSH1 0x40 MLOAD DUP1 SWAP2 SUB SWAP1 LOG2 POP POP POP PUSH2 0x1036 JUMP JUMPDEST PUSH1 0x0 DUP2 DUP2 MSTORE PUSH1 0x4 PUSH1 0x20 MSTORE PUSH1 0x40 DUP2 KECCAK256 PUSH1 0x2 ADD DUP1 SLOAD PUSH3 0xF4240 SWAP3 SWAP1 PUSH2 0x1011 SWAP1 DUP5 SWAP1 PUSH1 0x1 PUSH1 0x1 PUSH1 0x60 SHL SUB AND PUSH2 0x1618 JUMP JUMPDEST SWAP3 POP PUSH2 0x100 EXP DUP2 SLOAD DUP2 PUSH1 0x1 PUSH1 0x1 PUSH1 0x60 SHL SUB MUL NOT AND SWAP1 DUP4 PUSH1 0x1 PUSH1 0x1 PUSH1 0x60 SHL SUB AND MUL OR SWAP1 SSTORE POP JUMPDEST PUSH1 0x40 MLOAD CALLER SWAP1 DUP3 SWAP1 PUSH32 0xA31ECD4EF5C4170FC73B952E6C0344155875718DD9892919041E8A449246CB26 SWAP1 PUSH1 0x0 SWAP1 LOG3 PUSH2 0xC92 PUSH1 0x1 DUP1 SSTORE JUMP JUMPDEST PUSH2 0x1074 PUSH2 0x10A7 JUMP JUMPDEST PUSH1 0x1 PUSH1 0x1 PUSH1 0xA0 SHL SUB DUP2 AND PUSH2 0x109E JUMPI PUSH1 0x40 MLOAD PUSH4 0x1E4FBDF7 PUSH1 0xE0 SHL DUP2 MSTORE PUSH1 0x0 PUSH1 0x4 DUP3 ADD MSTORE PUSH1 0x24 ADD PUSH2 0x419 JUMP JUMPDEST PUSH2 0xC92 DUP2 PUSH2 0x118D JUMP JUMPDEST PUSH1 0x0 SLOAD PUSH1 0x1 PUSH1 0x1 PUSH1 0xA0 SHL SUB AND CALLER EQ PUSH2 0x751 JUMPI PUSH1 0x40 MLOAD PUSH4 0x118CDAA7 PUSH1 0xE0 SHL DUP2 MSTORE CALLER PUSH1 0x4 DUP3 ADD MSTORE PUSH1 0x24 ADD PUSH2 0x419 JUMP JUMPDEST PUSH1 0x40 MLOAD PUSH1 0x1 PUSH1 0x1 PUSH1 0xA0 SHL SUB DUP4 DUP2 AND PUSH1 0x24 DUP4 ADD MSTORE PUSH1 0x44 DUP3 ADD DUP4 SWAP1 MSTORE PUSH2 0x1133 SWAP2 DUP6 SWAP2 DUP3 AND SWAP1 PUSH4 0xA9059CBB SWAP1 PUSH1 0x64 ADD JUMPDEST PUSH1 0x40 MLOAD PUSH1 0x20 DUP2 DUP4 SUB SUB DUP2 MSTORE SWAP1 PUSH1 0x40 MSTORE SWAP2 POP PUSH1 0xE0 SHL PUSH1 0x20 DUP3 ADD DUP1 MLOAD PUSH1 0x1 PUSH1 0x1 PUSH1 0xE0 SHL SUB DUP4 DUP2 DUP4 AND OR DUP4 MSTORE POP POP POP POP PUSH2 0x12CA JUMP JUMPDEST POP POP POP JUMP JUMPDEST PUSH2 0x1140 PUSH2 0x133B JUMP JUMPDEST PUSH1 0x0 DUP1 SLOAD PUSH1 0xFF PUSH1 0xA0 SHL NOT AND SWAP1 SSTORE PUSH32 0x5DB9EE0A495BF2E6FF9C91A7834C1BA4FDD244A5E8AA4E537BD38AEAE4B073AA CALLER JUMPDEST PUSH1 0x40 MLOAD PUSH1 0x1 PUSH1 0x1 PUSH1 0xA0 SHL SUB SWAP1 SWAP2 AND DUP2 MSTORE PUSH1 0x20 ADD PUSH1 0x40 MLOAD DUP1 SWAP2 SUB SWAP1 LOG1 JUMP JUMPDEST PUSH1 0x0 DUP1 SLOAD PUSH1 0x1 PUSH1 0x1 PUSH1 0xA0 SHL SUB DUP4 DUP2 AND PUSH1 0x1 PUSH1 0x1 PUSH1 0xA0 SHL SUB NOT DUP4 AND DUP2 OR DUP5 SSTORE PUSH1 0x40 MLOAD SWAP2 SWAP1 SWAP3 AND SWAP3 DUP4 SWAP2 PUSH32 0x8BE0079C531659141344CD1FD0A4F28419497F9722A3DAAFE3B4186F6B6457E0 SWAP2 SWAP1 LOG3 POP POP JUMP JUMPDEST PUSH2 0x11E5 PUSH2 0x1260 JUMP JUMPDEST PUSH1 0x0 DUP1 SLOAD PUSH1 0xFF PUSH1 0xA0 SHL NOT AND PUSH1 0x1 PUSH1 0xA0 SHL OR SWAP1 SSTORE PUSH32 0x62E78CEA01BEE320CD4E420270B5EA74000D11B0C9F74754EBDBFC544B05A258 PUSH2 0x1170 CALLER SWAP1 JUMP JUMPDEST PUSH1 0x2 PUSH1 0x1 SLOAD SUB PUSH2 0x1243 JUMPI PUSH1 0x40 MLOAD PUSH4 0x3EE5AEB5 PUSH1 0xE0 SHL DUP2 MSTORE PUSH1 0x4 ADD PUSH1 0x40 MLOAD DUP1 SWAP2 SUB SWAP1 REVERT JUMPDEST PUSH1 0x2 PUSH1 0x1 SSTORE JUMP JUMPDEST PUSH1 0x0 DUP3 PUSH2 0x1257 DUP6 DUP5 PUSH2 0x1365 JUMP JUMPDEST EQ SWAP5 SWAP4 POP POP POP POP JUMP JUMPDEST PUSH1 0x0 SLOAD PUSH1 0x1 PUSH1 0xA0 SHL SWAP1 DIV PUSH1 0xFF AND ISZERO PUSH2 0x751 JUMPI PUSH1 0x40 MLOAD PUSH4 0xD93C0665 PUSH1 0xE0 SHL DUP2 MSTORE PUSH1 0x4 ADD PUSH1 0x40 MLOAD DUP1 SWAP2 SUB SWAP1 REVERT JUMPDEST PUSH1 0x40 MLOAD PUSH1 0x1 PUSH1 0x1 PUSH1 0xA0 SHL SUB DUP5 DUP2 AND PUSH1 0x24 DUP4 ADD MSTORE DUP4 DUP2 AND PUSH1 0x44 DUP4 ADD MSTORE PUSH1 0x64 DUP3 ADD DUP4 SWAP1 MSTORE PUSH2 0x12C4 SWAP2 DUP7 SWAP2 DUP3 AND SWAP1 PUSH4 0x23B872DD SWAP1 PUSH1 0x84 ADD PUSH2 0x1101 JUMP JUMPDEST POP POP POP POP JUMP JUMPDEST PUSH1 0x0 DUP1 PUSH1 0x20 PUSH1 0x0 DUP5 MLOAD PUSH1 0x20 DUP7 ADD PUSH1 0x0 DUP9 GAS CALL DUP1 PUSH2 0x12ED JUMPI PUSH1 0x40 MLOAD RETURNDATASIZE PUSH1 0x0 DUP3 RETURNDATACOPY RETURNDATASIZE DUP2 REVERT JUMPDEST POP POP PUSH1 0x0 MLOAD RETURNDATASIZE SWAP2 POP DUP2 ISZERO PUSH2 0x1305 JUMPI DUP1 PUSH1 0x1 EQ ISZERO PUSH2 0x1312 JUMP JUMPDEST PUSH1 0x1 PUSH1 0x1 PUSH1 0xA0 SHL SUB DUP5 AND EXTCODESIZE ISZERO JUMPDEST ISZERO PUSH2 0x12C4 JUMPI PUSH1 0x40 MLOAD PUSH4 0x5274AFE7 PUSH1 0xE0 SHL DUP2 MSTORE PUSH1 0x1 PUSH1 0x1 PUSH1 0xA0 SHL SUB DUP6 AND PUSH1 0x4 DUP3 ADD MSTORE PUSH1 0x24 ADD PUSH2 0x419 JUMP JUMPDEST PUSH1 0x0 SLOAD PUSH1 0x1 PUSH1 0xA0 SHL SWAP1 DIV PUSH1 0xFF AND PUSH2 0x751 JUMPI PUSH1 0x40 MLOAD PUSH4 0x8DFC202B PUSH1 0xE0 SHL DUP2 MSTORE PUSH1 0x4 ADD PUSH1 0x40 MLOAD DUP1 SWAP2 SUB SWAP1 REVERT JUMPDEST PUSH1 0x0 DUP2 DUP2 JUMPDEST DUP5 MLOAD DUP2 LT ISZERO PUSH2 0x13AA JUMPI PUSH2 0x1396 DUP3 DUP7 DUP4 DUP2 MLOAD DUP2 LT PUSH2 0x1389 JUMPI PUSH2 0x1389 PUSH2 0x16DF JUMP JUMPDEST PUSH1 0x20 MUL PUSH1 0x20 ADD ADD MLOAD PUSH2 0x13B2 JUMP JUMPDEST SWAP2 POP DUP1 PUSH2 0x13A2 DUP2 PUSH2 0x16F5 JUMP JUMPDEST SWAP2 POP POP PUSH2 0x136A JUMP JUMPDEST POP SWAP4 SWAP3 POP POP POP JUMP JUMPDEST PUSH1 0x0 DUP2 DUP4 LT PUSH2 0x13CE JUMPI PUSH1 0x0 DUP3 DUP2 MSTORE PUSH1 0x20 DUP5 SWAP1 MSTORE PUSH1 0x40 SWAP1 KECCAK256 PUSH2 0x13DD JUMP JUMPDEST PUSH1 0x0 DUP4 DUP2 MSTORE PUSH1 0x20 DUP4 SWAP1 MSTORE PUSH1 0x40 SWAP1 KECCAK256 JUMPDEST SWAP4 SWAP3 POP POP POP JUMP JUMPDEST PUSH1 0x0 PUSH1 0x20 DUP3 DUP5 SUB SLT ISZERO PUSH2 0x13F6 JUMPI PUSH1 0x0 DUP1 REVERT JUMPDEST DUP2 CALLDATALOAD PUSH2 0xFFFF DUP2 AND DUP2 EQ PUSH2 0x13DD JUMPI PUSH1 0x0 DUP1 REVERT JUMPDEST DUP1 CALLDATALOAD PUSH1 0x1 PUSH1 0x1 PUSH1 0x60 SHL SUB DUP2 AND DUP2 EQ PUSH2 0x141F JUMPI PUSH1 0x0 DUP1 REVERT JUMPDEST SWAP2 SWAP1 POP JUMP JUMPDEST PUSH1 0x0 DUP1 PUSH1 0x0 DUP1 PUSH1 0x80 DUP6 DUP8 SUB SLT ISZERO PUSH2 0x143A JUMPI PUSH1 0x0 DUP1 REVERT JUMPDEST DUP5 CALLDATALOAD SWAP4 POP PUSH1 0x20 DUP6 ADD CALLDATALOAD SWAP3 POP PUSH2 0x1451 PUSH1 0x40 DUP7 ADD PUSH2 0x1408 JUMP JUMPDEST SWAP2 POP PUSH2 0x145F PUSH1 0x60 DUP7 ADD PUSH2 0x1408 JUMP JUMPDEST SWAP1 POP SWAP3 SWAP6 SWAP2 SWAP5 POP SWAP3 POP JUMP JUMPDEST DUP1 CALLDATALOAD PUSH1 0x1 PUSH1 0x1 PUSH1 0xA0 SHL SUB DUP2 AND DUP2 EQ PUSH2 0x141F JUMPI PUSH1 0x0 DUP1 REVERT JUMPDEST PUSH1 0x0 DUP1 PUSH1 0x40 DUP4 DUP6 SUB SLT ISZERO PUSH2 0x1494 JUMPI PUSH1 0x0 DUP1 REVERT JUMPDEST DUP3 CALLDATALOAD SWAP2 POP PUSH2 0x14A4 PUSH1 0x20 DUP5 ADD PUSH2 0x146A JUMP JUMPDEST SWAP1 POP SWAP3 POP SWAP3 SWAP1 POP JUMP JUMPDEST PUSH1 0x0 PUSH1 0x20 DUP3 DUP5 SUB SLT ISZERO PUSH2 0x14BF JUMPI PUSH1 0x0 DUP1 REVERT JUMPDEST POP CALLDATALOAD SWAP2 SWAP1 POP JUMP JUMPDEST PUSH4 0x4E487B71 PUSH1 0xE0 SHL PUSH1 0x0 MSTORE PUSH1 0x21 PUSH1 0x4 MSTORE PUSH1 0x24 PUSH1 0x0 REVERT JUMPDEST PUSH8 0xFFFFFFFFFFFFFFFF DUP9 DUP2 AND DUP3 MSTORE DUP8 DUP2 AND PUSH1 0x20 DUP4 ADD MSTORE DUP7 AND PUSH1 0x40 DUP3 ADD MSTORE PUSH1 0xE0 DUP2 ADD PUSH1 0x3 DUP7 LT PUSH2 0x151B JUMPI PUSH4 0x4E487B71 PUSH1 0xE0 SHL PUSH1 0x0 MSTORE PUSH1 0x21 PUSH1 0x4 MSTORE PUSH1 0x24 PUSH1 0x0 REVERT JUMPDEST PUSH1 0x60 DUP3 ADD SWAP6 SWAP1 SWAP6 MSTORE PUSH1 0x80 DUP2 ADD SWAP4 SWAP1 SWAP4 MSTORE PUSH1 0x1 PUSH1 0x1 PUSH1 0x60 SHL SUB SWAP2 DUP3 AND PUSH1 0xA0 DUP5 ADD MSTORE AND PUSH1 0xC0 SWAP1 SWAP2 ADD MSTORE SWAP4 SWAP3 POP POP POP JUMP JUMPDEST PUSH1 0x0 DUP1 PUSH1 0x0 DUP1 PUSH1 0x0 PUSH1 0x80 DUP7 DUP9 SUB SLT ISZERO PUSH2 0x1561 JUMPI PUSH1 0x0 DUP1 REVERT JUMPDEST DUP6 CALLDATALOAD SWAP5 POP PUSH2 0x1571 PUSH1 0x20 DUP8 ADD PUSH2 0x146A JUMP JUMPDEST SWAP4 POP PUSH2 0x157F PUSH1 0x40 DUP8 ADD PUSH2 0x1408 JUMP JUMPDEST SWAP3 POP PUSH1 0x60 DUP7 ADD CALLDATALOAD PUSH8 0xFFFFFFFFFFFFFFFF DUP1 DUP3 GT ISZERO PUSH2 0x159C JUMPI PUSH1 0x0 DUP1 REVERT JUMPDEST DUP2 DUP9 ADD SWAP2 POP DUP9 PUSH1 0x1F DUP4 ADD SLT PUSH2 0x15B0 JUMPI PUSH1 0x0 DUP1 REVERT JUMPDEST DUP2 CALLDATALOAD DUP2 DUP2 GT ISZERO PUSH2 0x15BF JUMPI PUSH1 0x0 DUP1 REVERT JUMPDEST DUP10 PUSH1 0x20 DUP3 PUSH1 0x5 SHL DUP6 ADD ADD GT ISZERO PUSH2 0x15D4 JUMPI PUSH1 0x0 DUP1 REVERT JUMPDEST SWAP7 SWAP10 SWAP6 SWAP9 POP SWAP4 SWAP7 POP PUSH1 0x20 ADD SWAP5 SWAP4 SWAP3 POP POP POP JUMP JUMPDEST PUSH1 0x0 PUSH1 0x20 DUP3 DUP5 SUB SLT ISZERO PUSH2 0x15F9 JUMPI PUSH1 0x0 DUP1 REVERT JUMPDEST PUSH2 0x13DD DUP3 PUSH2 0x146A JUMP JUMPDEST PUSH4 0x4E487B71 PUSH1 0xE0 SHL PUSH1 0x0 MSTORE PUSH1 0x11 PUSH1 0x4 MSTORE PUSH1 0x24 PUSH1 0x0 REVERT JUMPDEST PUSH1 0x1 PUSH1 0x1 PUSH1 0x60 SHL SUB DUP2 DUP2 AND DUP4 DUP3 AND ADD SWAP1 DUP1 DUP3 GT ISZERO PUSH2 0x1638 JUMPI PUSH2 0x1638 PUSH2 0x1602 JUMP JUMPDEST POP SWAP3 SWAP2 POP POP JUMP JUMPDEST PUSH1 0x1 PUSH1 0x1 PUSH1 0x60 SHL SUB DUP2 DUP2 AND DUP4 DUP3 AND MUL DUP1 DUP3 AND SWAP2 SWAP1 DUP3 DUP2 EQ PUSH2 0x1662 JUMPI PUSH2 0x1662 PUSH2 0x1602 JUMP JUMPDEST POP POP SWAP3 SWAP2 POP POP JUMP JUMPDEST PUSH1 0x0 PUSH1 0x1 PUSH1 0x1 PUSH1 0x60 SHL SUB DUP1 DUP5 AND DUP1 PUSH2 0x1692 JUMPI PUSH4 0x4E487B71 PUSH1 0xE0 SHL PUSH1 0x0 MSTORE PUSH1 0x12 PUSH1 0x4 MSTORE PUSH1 0x24 PUSH1 0x0 REVERT JUMPDEST SWAP3 AND SWAP2 SWAP1 SWAP2 DIV SWAP3 SWAP2 POP POP JUMP JUMPDEST PUSH1 0x1 PUSH1 0x1 PUSH1 0x60 SHL SUB DUP3 DUP2 AND DUP3 DUP3 AND SUB SWAP1 DUP1 DUP3 GT ISZERO PUSH2 0x1638 JUMPI PUSH2 0x1638 PUSH2 0x1602 JUMP JUMPDEST PUSH8 0xFFFFFFFFFFFFFFFF DUP2 DUP2 AND DUP4 DUP3 AND ADD SWAP1 DUP1 DUP3 GT ISZERO PUSH2 0x1638 JUMPI PUSH2 0x1638 PUSH2 0x1602 JUMP JUMPDEST PUSH4 0x4E487B71 PUSH1 0xE0 SHL PUSH1 0x0 MSTORE PUSH1 0x32 PUSH1 0x4 MSTORE PUSH1 0x24 PUSH1 0x0 REVERT JUMPDEST PUSH1 0x0 PUSH1 0x1 DUP3 ADD PUSH2 0x1707 JUMPI PUSH2 0x1707 PUSH2 0x1602 JUMP JUMPDEST POP PUSH1 0x1 ADD SWAP1 JUMP INVALID LOG2 PUSH5 0x6970667358 0x22 SLT KECCAK256 NOT 0xC5 SWAP2 PUSH29 0x5FFD75D71EE0C958C45F9AABEE37614C03BC459FE0D3ADDD16886E264 PUSH20 0x6F6C634300081400330000000000000000000000 "},"methodIdentifiers":{"DEPOSIT_AMOUNT()":"ec6925a7","FINALIZE_DEADLINE_EXTENSION()":"14717e38","LOBBY_DURATION()":"5c5c8382","claim(uint256,address,uint96,bytes32[])":"9ec95c50","claimed(uint256,address)":"120aa877","feeBps()":"24a9d853","feeRecipient()":"46904840","finalizeLobby(uint256,bytes32,uint96,uint96)":"029c58f6","hasDeposited(uint256,address)":"99b1eb2e","joinLobby(uint256)":"e9173b3a","lobbies(uint256)":"6e8fb4c6","operator()":"570ca735","owner()":"8da5cb5b","pause()":"8456cb59","paused()":"5c975abb","renounceOwnership()":"715018a6","setFeeBps(uint16)":"023b1fc9","setFeeRecipient(address)":"e74b981b","setOperator(address)":"b3ab15fb","timeoutRefund(uint256)":"dcdfd05e","token()":"fc0c546a","transferOwnership(address)":"f2fde38b","unpause()":"3f4ba83a"}}}}}