{
  "_format": "hh-sol-artifact-1",
  "contractName": "BetLobby",
  "sourceName": "contracts/BetLobby.sol",
  "abi": [
    {
      "inputs": [
        {
          "internalType": "address",
          "name": "_token",
          "type": "address"
        },
        {
          "internalType": "address",
          "name": "_operator",
          "type": "address"
        },
        {
          "internalType": "address",
          "name": "_feeRecipient",
          "type": "address"
        }
      ],
      "stateMutability": "nonpayable",
      "type": "constructor"
    },
    {
      "inputs": [],
      "name": "EnforcedPause",
      "type": "error"
    },
    {
      "inputs": [],
      "name": "ExpectedPause",
      "type": "error"
    },
    {
      "inputs": [
        {
          "internalType": "address",
          "name": "owner",
          "type": "address"
        }
      ],
      "name": "OwnableInvalidOwner",
      "type": "error"
    },
    {
      "inputs": [
        {
          "internalType": "address",
          "name": "account",
          "type": "address"
        }
      ],
      "name": "OwnableUnauthorizedAccount",
      "type": "error"
    },
    {
      "inputs": [],
      "name": "ReentrancyGuardReentrantCall",
      "type": "error"
    },
    {
      "inputs": [
        {
          "internalType": "address",
          "name": "token",
          "type": "address"
        }
      ],
      "name": "SafeERC20FailedOperation",
      "type": "error"
    },
    {
      "anonymous": false,
      "inputs": [
        {
          "indexed": true,
          "internalType": "uint256",
          "name": "lobbyId",
          "type": "uint256"
        },
        {
          "indexed": false,
          "internalType": "uint64",
          "name": "startTime",
          "type": "uint64"
        },
        {
          "indexed": false,
          "internalType": "uint64",
          "name": "endTime",
          "type": "uint64"
        }
      ],
      "name": "LobbyActivated",
      "type": "event"
    },
    {
      "anonymous": false,
      "inputs": [
        {
          "indexed": true,
          "internalType": "uint256",
          "name": "lobbyId",
          "type": "uint256"
        },
        {
          "indexed": false,
          "internalType": "uint96",
          "name": "totalPayout",
          "type": "uint96"
        },
        {
          "indexed": false,
          "internalType": "uint96",
          "name": "feeAmount",
          "type": "uint96"
        }
      ],
      "name": "LobbyFinalized",
      "type": "event"
    },
    {
      "anonymous": false,
      "inputs": [
        {
          "indexed": true,
          "internalType": "uint256",
          "name": "lobbyId",
          "type": "uint256"
        },
        {
          "indexed": true,
          "internalType": "address",
          "name": "player",
          "type": "address"
        }
      ],
      "name": "LobbyJoined",
      "type": "event"
    },
    {
      "anonymous": false,
      "inputs": [
        {
          "indexed": true,
          "internalType": "address",
          "name": "previousOwner",
          "type": "address"
        },
        {
          "indexed": true,
          "internalType": "address",
          "name": "newOwner",
          "type": "address"
        }
      ],
      "name": "OwnershipTransferred",
      "type": "event"
    },
    {
      "anonymous": false,
      "inputs": [
        {
          "indexed": false,
          "internalType": "address",
          "name": "account",
          "type": "address"
        }
      ],
      "name": "Paused",
      "type": "event"
    },
    {
      "anonymous": false,
      "inputs": [
        {
          "indexed": true,
          "internalType": "uint256",
          "name": "lobbyId",
          "type": "uint256"
        },
        {
          "indexed": true,
          "internalType": "address",
          "name": "player",
          "type": "address"
        },
        {
          "indexed": false,
          "internalType": "uint96",
          "name": "amount",
          "type": "uint96"
        }
      ],
      "name": "RewardDistributed",
      "type": "event"
    },
    {
      "anonymous": false,
      "inputs": [
        {
          "indexed": true,
          "internalType": "uint256",
          "name": "lobbyId",
          "type": "uint256"
        },
        {
          "indexed": true,
          "internalType": "address",
          "name": "player",
          "type": "address"
        }
      ],
      "name": "TimeoutRefund",
      "type": "event"
    },
    {
      "anonymous": false,
      "inputs": [
        {
          "indexed": false,
          "internalType": "address",
          "name": "account",
          "type": "address"
        }
      ],
      "name": "Unpaused",
      "type": "event"
    },
    {
      "inputs": [],
      "name": "DEPOSIT_AMOUNT",
      "outputs": [
        {
          "internalType": "uint256",
          "name": "",
          "type": "uint256"
        }
      ],
      "stateMutability": "view",
      "type": "function"
    },
    {
      "inputs": [],
      "name": "FINALIZE_DEADLINE_EXTENSION",
      "outputs": [
        {
          "internalType": "uint256",
          "name": "",
          "type": "uint256"
        }
      ],
      "stateMutability": "view",
      "type": "function"
    },
    {
      "inputs": [],
      "name": "LOBBY_DURATION",
      "outputs": [
        {
          "internalType": "uint256",
          "name": "",
          "type": "uint256"
        }
      ],
      "stateMutability": "view",
      "type": "function"
    },
    {
      "inputs": [
        {
          "internalType": "uint256",
          "name": "lobbyId",
          "type": "uint256"
        },
        {
          "internalType": "address[]",
          "name": "recipients",
          "type": "address[]"
        },
        {
          "internalType": "uint96[]",
          "name": "amounts",
          "type": "uint96[]"
        },
        {
          "internalType": "uint96",
          "name": "totalPayout",
          "type": "uint96"
        },
        {
          "internalType": "uint96",
          "name": "feeAmount",
          "type": "uint96"
        }
      ],
      "name": "distributeRewards",
      "outputs": [],
      "stateMutability": "nonpayable",
      "type": "function"
    },
    {
      "inputs": [],
      "name": "feeBps",
      "outputs": [
        {
          "internalType": "uint16",
          "name": "",
          "type": "uint16"
        }
      ],
      "stateMutability": "view",
      "type": "function"
    },
    {
      "inputs": [],
      "name": "feeRecipient",
      "outputs": [
        {
          "internalType": "address",
          "name": "",
          "type": "address"
        }
      ],
      "stateMutability": "view",
      "type": "function"
    },
    {
      "inputs": [
        {
          "internalType": "uint256",
          "name": "",
          "type": "uint256"
        },
        {
          "internalType": "address",
          "name": "",
          "type": "address"
        }
      ],
      "name": "hasDeposited",
      "outputs": [
        {
          "internalType": "bool",
          "name": "",
          "type": "bool"
        }
      ],
      "stateMutability": "view",
      "type": "function"
    },
    {
      "inputs": [
        {
          "internalType": "uint256",
          "name": "lobbyId",
          "type": "uint256"
        }
      ],
      "name": "joinLobby",
      "outputs": [],
      "stateMutability": "nonpayable",
      "type": "function"
    },
    {
      "inputs": [
        {
          "internalType": "uint256",
          "name": "",
          "type": "uint256"
        }
      ],
      "name": "lobbies",
      "outputs": [
        {
          "internalType": "uint64",
          "name": "startTime",
          "type": "uint64"
        },
        {
          "internalType": "uint64",
          "name": "endTime",
          "type": "uint64"
        },
        {
          "internalType": "uint64",
          "name": "finalizeDeadline",
          "type": "uint64"
        },
        {
          "internalType": "enum BetLobby.LobbyState",
          "name": "state",
          "type": "uint8"
        },
        {
          "internalType": "uint96",
          "name": "totalDeposits",
          "type": "uint96"
        },
        {
          "internalType": "uint96",
          "name": "totalDistributed",
          "type": "uint96"
        }
      ],
      "stateMutability": "view",
      "type": "function"
    },
    {
      "inputs": [],
      "name": "operator",
      "outputs": [
        {
          "internalType": "address",
          "name": "",
          "type": "address"
        }
      ],
      "stateMutability": "view",
      "type": "function"
    },
    {
      "inputs": [],
      "name": "owner",
      "outputs": [
        {
          "internalType": "address",
          "name": "",
          "type": "address"
        }
      ],
      "stateMutability": "view",
      "type": "function"
    },
    {
      "inputs": [],
      "name": "pause",
      "outputs": [],
      "stateMutability": "nonpayable",
      "type": "function"
    },
    {
      "inputs": [],
      "name": "paused",
      "outputs": [
        {
          "internalType": "bool",
          "name": "",
          "type": "bool"
        }
      ],
      "stateMutability": "view",
      "type": "function"
    },
    {
      "inputs": [],
      "name": "renounceOwnership",
      "outputs": [],
      "stateMutability": "nonpayable",
      "type": "function"
    },
    {
      "inputs": [
        {
          "internalType": "uint16",
          "name": "_feeBps",
          "type": "uint16"
        }
      ],
      "name": "setFeeBps",
      "outputs": [],
      "stateMutability": "nonpayable",
      "type": "function"
    },
    {
      "inputs": [
        {
          "internalType": "address",
          "name": "_feeRecipient",
          "type": "address"
        }
      ],
      "name": "setFeeRecipient",
      "outputs": [],
      "stateMutability": "nonpayable",
      "type": "function"
    },
    {
      "inputs": [
        {
          "internalType": "address",
          "name": "_operator",
          "type": "address"
        }
      ],
      "name": "setOperator",
      "outputs": [],
      "stateMutability": "nonpayable",
      "type": "function"
    },
    {
      "inputs": [
        {
          "internalType": "uint256",
          "name": "lobbyId",
          "type": "uint256"
        }
      ],
      "name": "timeoutRefund",
      "outputs": [],
      "stateMutability": "nonpayable",
      "type": "function"
    },
    {
      "inputs": [],
      "name": "token",
      "outputs": [
        {
          "internalType": "contract IERC20",
          "name": "",
          "type": "address"
        }
      ],
      "stateMutability": "view",
      "type": "function"
    },
    {
      "inputs": [
        {
          "internalType": "address",
          "name": "newOwner",
          "type": "address"
        }
      ],
      "name": "transferOwnership",
      "outputs": [],
      "stateMutability": "nonpayable",
      "type": "function"
    },
    {
      "inputs": [],
      "name": "unpause",
      "outputs": [],
      "stateMutability": "nonpayable",
      "type": "function"
    }
  ],
  "bytecode": "0x60a06040526003805461ffff60a01b1916607d60a21b1790553480156200002557600080fd5b50604051620018963803806200189683398101604081905262000048916200022c565b33806200007057604051631e4fbdf760e01b8152600060048201526024015b60405180910390fd5b6200007b81620001bf565b50600180556001600160a01b038316620000d85760405162461bcd60e51b815260206004820152601560248201527f496e76616c696420746f6b656e20616464726573730000000000000000000000604482015260640162000067565b6001600160a01b038216620001305760405162461bcd60e51b815260206004820152601860248201527f496e76616c6964206f70657261746f7220616464726573730000000000000000604482015260640162000067565b6001600160a01b038116620001885760405162461bcd60e51b815260206004820152601d60248201527f496e76616c69642066656520726563697069656e742061646472657373000000604482015260640162000067565b6001600160a01b03928316608052600280549284166001600160a01b03199384161790556003805491909316911617905562000276565b600080546001600160a01b038381166001600160a01b0319831681178455604051919092169283917f8be0079c531659141344cd1fd0a4f28419497f9722a3daafe3b4186f6b6457e09190a35050565b80516001600160a01b03811681146200022757600080fd5b919050565b6000806000606084860312156200024257600080fd5b6200024d846200020f565b92506200025d602085016200020f565b91506200026d604085016200020f565b90509250925092565b6080516115e8620002ae6000396000818161034d015281816106af0152818161078001528181610b4d0152610cbf01526115e86000f3fe608060405234801561001057600080fd5b50600436106101375760003560e01c8063715018a6116100b8578063dcdfd05e1161007c578063dcdfd05e146102f2578063e74b981b14610305578063e9173b3a14610318578063ec6925a71461032b578063f2fde38b14610335578063fc0c546a1461034857600080fd5b8063715018a6146102905780638456cb59146102985780638da5cb5b146102a057806399b1eb2e146102b1578063b3ab15fb146102df57600080fd5b806346904840116100ff57806346904840146101b0578063570ca735146101db5780635c5c8382146101ee5780635c975abb146101f75780636e8fb4c61461021557600080fd5b8063023b1fc91461013c57806314717e381461015157806324a9d8531461016d5780633f4ba83a1461019557806344e727791461019d575b600080fd5b61014f61014a36600461126a565b61036f565b005b61015a61025881565b6040519081526020015b60405180910390f35b60035461018290600160a01b900461ffff1681565b60405161ffff9091168152602001610164565b61014f6103e3565b61014f6101ab3660046112fd565b6103f5565b6003546101c3906001600160a01b031681565b6040516001600160a01b039091168152602001610164565b6002546101c3906001600160a01b031681565b61015a61012c81565b600054600160a01b900460ff165b6040519015158152602001610164565b61027e610223366004611398565b6004602052600090815260409020805460019091015467ffffffffffffffff80831692600160401b8104821692600160801b820490921691600160c01b90910460ff16906001600160601b0380821691600160601b90041686565b604051610164969594939291906113c7565b61014f610983565b61014f610995565b6000546001600160a01b03166101c3565b6102056102bf366004611444565b600560209081526000928352604080842090915290825290205460ff1681565b61014f6102ed366004611470565b6109a5565b61014f610300366004611398565b610a18565b61014f610313366004611470565b610bb1565b61014f610326366004611398565b610c29565b61015a620f424081565b61014f610343366004611470565b610f87565b6101c37f000000000000000000000000000000000000000000000000000000000000000081565b610377610fc2565b6103e88161ffff1611156103c15760405162461bcd60e51b815260206004820152600c60248201526b08ccaca40e8dede40d0d2ced60a31b60448201526064015b60405180910390fd5b6003805461ffff909216600160a01b0261ffff60a01b19909216919091179055565b6103eb610fc2565b6103f3610fef565b565b6103fd611044565b6002546001600160a01b031633146104475760405162461bcd60e51b815260206004820152600d60248201526c27b7363c9037b832b930ba37b960991b60448201526064016103b8565b6001600088815260046020526040902054600160c01b900460ff166002811115610473576104736113b1565b146104b35760405162461bcd60e51b815260206004820152601060248201526f4c6f626279206e6f742061637469766560801b60448201526064016103b8565b600087815260046020526040902054600160401b900467ffffffffffffffff164210156105145760405162461bcd60e51b815260206004820152600f60248201526e131bd8989e481b9bdd08195b991959608a1b60448201526064016103b8565b8483146105555760405162461bcd60e51b815260206004820152600f60248201526e098cadccee8d040dad2e6dac2e8c6d608b1b60448201526064016103b8565b6000878152600460205260409020600101546001600160601b031661057a82846114a1565b6001600160601b0316146105c25760405162461bcd60e51b815260206004820152600f60248201526e0a0c2f2deeae840dad2e6dac2e8c6d608b1b60448201526064016103b8565b600354600090612710906105e190600160a01b900461ffff16856114c8565b6105eb91906114f3565b90506105f8600182611527565b6001600160601b0316826001600160601b031610158015610635575061061f8160016114a1565b6001600160601b0316826001600160601b031611155b6106705760405162461bcd60e51b815260206004820152600c60248201526b08ccaca40dad2e6dac2e8c6d60a31b60448201526064016103b8565b6000888152600460205260409020805460ff60c01b1916600160c11b1790556001600160601b038216156106e1576003546106e1906001600160a01b037f0000000000000000000000000000000000000000000000000000000000000000811691166001600160601b03851661106e565b6000805b8781101561088a57600087878381811061070157610701611547565b9050602002016020810190610716919061155d565b6001600160601b03161115610878576107b089898381811061073a5761073a611547565b905060200201602081019061074f9190611470565b88888481811061076157610761611547565b9050602002016020810190610776919061155d565b6001600160a01b037f00000000000000000000000000000000000000000000000000000000000000001691906001600160601b031661106e565b8888828181106107c2576107c2611547565b90506020020160208101906107d79190611470565b6001600160a01b03168a7f1a0b48b9bb6153fa229b0113140a2a2dedf5dfee3eeb90c38d97f6bd1d14e15b89898581811061081457610814611547565b9050602002016020810190610829919061155d565b6040516001600160601b03909116815260200160405180910390a386868281811061085657610856611547565b905060200201602081019061086b919061155d565b61087590836114a1565b91505b8061088281611578565b9150506106e5565b50836001600160601b0316816001600160601b0316146108e45760405162461bcd60e51b81526020600482015260156024820152740a8dee8c2d840e0c2f2deeae840dad2e6dac2e8c6d605b1b60448201526064016103b8565b6000898152600460205260409081902060010180546001600160601b038416600160601b026bffffffffffffffffffffffff60601b199091161790555189907f1f0a515f5102644db75f85423ee0c0f96aed6dd2b60c9716f77cf39ab4b25b859061096790879087906001600160601b0392831681529116602082015260400190565b60405180910390a2505061097a60018055565b50505050505050565b61098b610fc2565b6103f360006110d2565b61099d610fc2565b6103f3611122565b6109ad610fc2565b6001600160a01b0381166109f65760405162461bcd60e51b815260206004820152601060248201526f24b73b30b634b21037b832b930ba37b960811b60448201526064016103b8565b600280546001600160a01b0319166001600160a01b0392909216919091179055565b610a20611044565b600081815260046020526040902060018154600160c01b900460ff166002811115610a4d57610a4d6113b1565b14610a8d5760405162461bcd60e51b815260206004820152601060248201526f4c6f626279206e6f742061637469766560801b60448201526064016103b8565b8054600160801b900467ffffffffffffffff164211610ae45760405162461bcd60e51b8152602060048201526013602482015272111958591b1a5b99481b9bdd081c185cdcd959606a1b60448201526064016103b8565b600082815260056020908152604080832033845290915290205460ff16610b405760405162461bcd60e51b815260206004820152601060248201526f139bc819195c1bdcda5d08199bdd5b9960821b60448201526064016103b8565b610b776001600160a01b037f00000000000000000000000000000000000000000000000000000000000000001633620f424061106e565b604051339083907f9dc10ede665d3fe08611de6af7e048434f244dfb391fe658d575676aa09c060e90600090a350610bae60018055565b50565b610bb9610fc2565b6001600160a01b038116610c075760405162461bcd60e51b8152602060048201526015602482015274125b9d985b1a5908199959481c9958da5c1a595b9d605a1b60448201526064016103b8565b600380546001600160a01b0319166001600160a01b0392909216919091179055565b610c31611165565b610c39611044565b6002600082815260046020526040902054600160c01b900460ff166002811115610c6557610c656113b1565b03610cb25760405162461bcd60e51b815260206004820152601760248201527f4c6f62627920616c72656164792066696e616c697a656400000000000000000060448201526064016103b8565b610cea6001600160a01b037f0000000000000000000000000000000000000000000000000000000000000000163330620f4240611190565b60008181526005602090815260408083203384529091528120805460ff19166001179055600082815260046020526040902054600160c01b900460ff166002811115610d3857610d386113b1565b03610eff57426000610d4c61012c83611591565b90506000610d5c61025883611591565b90506040518060c001604052808467ffffffffffffffff1681526020018367ffffffffffffffff1681526020018267ffffffffffffffff16815260200160016002811115610dac57610dac6113b1565b8152620f4240602080830191909152600060409283018190528781526004825282902083518154928501519385015167ffffffffffffffff908116600160801b0267ffffffffffffffff60801b19958216600160401b026fffffffffffffffffffffffffffffffff1990951691909216179290921792831682178155606084015190929091839160ff60c01b1990911668ffffffffffffffffff60801b1990911617600160c01b836002811115610e6557610e656113b1565b021790555060808201516001909101805460a0909301516001600160601b03908116600160601b026001600160c01b031990941692169190911791909117905560405184907ff982295d1467944e5d401d9ac56d299eb16e1166b7ada36f3c7452f24d286a4f90610eef908690869067ffffffffffffffff92831681529116602082015260400190565b60405180910390a2505050610f51565b60008181526004602052604081206001018054620f42409290610f2c9084906001600160601b03166114a1565b92506101000a8154816001600160601b0302191690836001600160601b031602179055505b604051339082907fa31ecd4ef5c4170fc73b952e6c0344155875718dd9892919041e8a449246cb2690600090a3610bae60018055565b610f8f610fc2565b6001600160a01b038116610fb957604051631e4fbdf760e01b8152600060048201526024016103b8565b610bae816110d2565b6000546001600160a01b031633146103f35760405163118cdaa760e01b81523360048201526024016103b8565b610ff76111cf565b6000805460ff60a01b191690557f5db9ee0a495bf2e6ff9c91a7834c1ba4fdd244a5e8aa4e537bd38aeae4b073aa335b6040516001600160a01b03909116815260200160405180910390a1565b60026001540361106757604051633ee5aeb560e01b815260040160405180910390fd5b6002600155565b6040516001600160a01b038381166024830152604482018390526110cd91859182169063a9059cbb906064015b604051602081830303815290604052915060e01b6020820180516001600160e01b0383818316178352505050506111f9565b505050565b600080546001600160a01b038381166001600160a01b0319831681178455604051919092169283917f8be0079c531659141344cd1fd0a4f28419497f9722a3daafe3b4186f6b6457e09190a35050565b61112a611165565b6000805460ff60a01b1916600160a01b1790557f62e78cea01bee320cd4e420270b5ea74000d11b0c9f74754ebdbfc544b05a2586110273390565b600054600160a01b900460ff16156103f35760405163d93c066560e01b815260040160405180910390fd5b6040516001600160a01b0384811660248301528381166044830152606482018390526111c99186918216906323b872dd9060840161109b565b50505050565b600054600160a01b900460ff166103f357604051638dfc202b60e01b815260040160405180910390fd5b600080602060008451602086016000885af18061121c576040513d6000823e3d81fd5b50506000513d91508115611234578060011415611241565b6001600160a01b0384163b155b156111c957604051635274afe760e01b81526001600160a01b03851660048201526024016103b8565b60006020828403121561127c57600080fd5b813561ffff8116811461128e57600080fd5b9392505050565b60008083601f8401126112a757600080fd5b50813567ffffffffffffffff8111156112bf57600080fd5b6020830191508360208260051b85010111156112da57600080fd5b9250929050565b80356001600160601b03811681146112f857600080fd5b919050565b600080600080600080600060a0888a03121561131857600080fd5b87359650602088013567ffffffffffffffff8082111561133757600080fd5b6113438b838c01611295565b909850965060408a013591508082111561135c57600080fd5b506113698a828b01611295565b909550935061137c9050606089016112e1565b915061138a608089016112e1565b905092959891949750929550565b6000602082840312156113aa57600080fd5b5035919050565b634e487b7160e01b600052602160045260246000fd5b67ffffffffffffffff878116825286811660208301528516604082015260c081016003851061140657634e487b7160e01b600052602160045260246000fd5b60608201949094526001600160601b039283166080820152911660a0909101529392505050565b80356001600160a01b03811681146112f857600080fd5b6000806040838503121561145757600080fd5b823591506114676020840161142d565b90509250929050565b60006020828403121561148257600080fd5b61128e8261142d565b634e487b7160e01b600052601160045260246000fd5b6001600160601b038181168382160190808211156114c1576114c161148b565b5092915050565b6001600160601b038181168382160280821691908281146114eb576114eb61148b565b505092915050565b60006001600160601b038084168061151b57634e487b7160e01b600052601260045260246000fd5b92169190910492915050565b6001600160601b038281168282160390808211156114c1576114c161148b565b634e487b7160e01b600052603260045260246000fd5b60006020828403121561156f57600080fd5b61128e826112e1565b60006001820161158a5761158a61148b565b5060010190565b67ffffffffffffffff8181168382160190808211156114c1576114c161148b56fea26469706673582212200b9a04087a7812e7689f00d33eec8d6786d4e75d07718c72cdda72b314fcff2664736f6c63430008140033",
  "linkReferences": {},
  "deployedLinkReferences": {}
}