{
  "_format": "hh-sol-artifact-1",
  "contractName": "BetLobby",
  "sourceName": "contracts/BetLobby.sol",
  "abi": [
    {
      "inputs": [
        {
          "internalType": "address",
          "name": "_token",
          "type": "address"
        },
        {
          "internalType": "address",
          "name": "_operator",
          "type": "address"
        },
        {
          "internalType": "address",
          "name": "_feeRecipient",
          "type": "address"
        }
      ],
      "stateMutability": "nonpayable",
      "type": "constructor"
    },
    {
      "inputs": [],
      "name": "EnforcedPause",
      "type": "error"
    },
    {
      "inputs": [],
      "name": "ExpectedPause",
      "type": "error"
    },
    {
      "inputs": [
        {
          "internalType": "address",
          "name": "owner",
          "type": "address"
        }
      ],
      "name": "OwnableInvalidOwner",
      "type": "error"
    },
    {
      "inputs": [
        {
          "internalType": "address",
          "name": "account",
          "type": "address"
        }
      ],
      "name": "OwnableUnauthorizedAccount",
      "type": "error"
    },
    {
      "inputs": [],
      "name": "ReentrancyGuardReentrantCall",
      "type": "error"
    },
    {
      "inputs": [
        {
          "internalType": "address",
          "name": "token",
          "type": "address"
        }
      ],
      "name": "SafeERC20FailedOperation",
      "type": "error"
    },
    {
      "anonymous": false,
      "inputs": [
        {
          "indexed": true,
          "internalType": "uint256",
          "name": "lobbyId",
          "type": "uint256"
        },
        {
          "indexed": true,
          "internalType": "address",
          "name": "player",
          "type": "address"
        },
        {
          "indexed": false,
          "internalType": "uint96",
          "name": "amount",
          "type": "uint96"
        }
      ],
      "name": "Claimed",
      "type": "event"
    },
    {
      "anonymous": false,
      "inputs": [
        {
          "indexed": true,
          "internalType": "uint256",
          "name": "lobbyId",
          "type": "uint256"
        },
        {
          "indexed": false,
          "internalType": "uint64",
          "name": "startTime",
          "type": "uint64"
        },
        {
          "indexed": false,
          "internalType": "uint64",
          "name": "endTime",
          "type": "uint64"
        }
      ],
      "name": "LobbyActivated",
      "type": "event"
    },
    {
      "anonymous": false,
      "inputs": [
        {
          "indexed": true,
          "internalType": "uint256",
          "name": "lobbyId",
          "type": "uint256"
        },
        {
          "indexed": false,
          "internalType": "bytes32",
          "name": "merkleRoot",
          "type": "bytes32"
        },
        {
          "indexed": false,
          "internalType": "uint96",
          "name": "totalPayout",
          "type": "uint96"
        },
        {
          "indexed": false,
          "internalType": "uint96",
          "name": "feeAmount",
          "type": "uint96"
        }
      ],
      "name": "LobbyFinalized",
      "type": "event"
    },
    {
      "anonymous": false,
      "inputs": [
        {
          "indexed": true,
          "internalType": "uint256",
          "name": "lobbyId",
          "type": "uint256"
        },
        {
          "indexed": true,
          "internalType": "address",
          "name": "player",
          "type": "address"
        }
      ],
      "name": "LobbyJoined",
      "type": "event"
    },
    {
      "anonymous": false,
      "inputs": [
        {
          "indexed": true,
          "internalType": "address",
          "name": "previousOwner",
          "type": "address"
        },
        {
          "indexed": true,
          "internalType": "address",
          "name": "newOwner",
          "type": "address"
        }
      ],
      "name": "OwnershipTransferred",
      "type": "event"
    },
    {
      "anonymous": false,
      "inputs": [
        {
          "indexed": false,
          "internalType": "address",
          "name": "account",
          "type": "address"
        }
      ],
      "name": "Paused",
      "type": "event"
    },
    {
      "anonymous": false,
      "inputs": [
        {
          "indexed": true,
          "internalType": "uint256",
          "name": "lobbyId",
          "type": "uint256"
        },
        {
          "indexed": true,
          "internalType": "address",
          "name": "player",
          "type": "address"
        }
      ],
      "name": "TimeoutRefund",
      "type": "event"
    },
    {
      "anonymous": false,
      "inputs": [
        {
          "indexed": false,
          "internalType": "address",
          "name": "account",
          "type": "address"
        }
      ],
      "name": "Unpaused",
      "type": "event"
    },
    {
      "inputs": [],
      "name": "DEPOSIT_AMOUNT",
      "outputs": [
        {
          "internalType": "uint256",
          "name": "",
          "type": "uint256"
        }
      ],
      "stateMutability": "view",
      "type": "function"
    },
    {
      "inputs": [],
      "name": "FINALIZE_DEADLINE_EXTENSION",
      "outputs": [
        {
          "internalType": "uint256",
          "name": "",
          "type": "uint256"
        }
      ],
      "stateMutability": "view",
      "type": "function"
    },
    {
      "inputs": [],
      "name": "LOBBY_DURATION",
      "outputs": [
        {
          "internalType": "uint256",
          "name": "",
          "type": "uint256"
        }
      ],
      "stateMutability": "view",
      "type": "function"
    },
    {
      "inputs": [
        {
          "internalType": "uint256",
          "name": "lobbyId",
          "type": "uint256"
        },
        {
          "internalType": "address",
          "name": "player",
          "type": "address"
        },
        {
          "internalType": "uint96",
          "name": "amount",
          "type": "uint96"
        },
        {
          "internalType": "bytes32[]",
          "name": "proof",
          "type": "bytes32[]"
        }
      ],
      "name": "claim",
      "outputs": [],
      "stateMutability": "nonpayable",
      "type": "function"
    },
    {
      "inputs": [
        {
          "internalType": "uint256",
          "name": "",
          "type": "uint256"
        },
        {
          "internalType": "address",
          "name": "",
          "type": "address"
        }
      ],
      "name": "claimed",
      "outputs": [
        {
          "internalType": "bool",
          "name": "",
          "type": "bool"
        }
      ],
      "stateMutability": "view",
      "type": "function"
    },
    {
      "inputs": [],
      "name": "feeBps",
      "outputs": [
        {
          "internalType": "uint16",
          "name": "",
          "type": "uint16"
        }
      ],
      "stateMutability": "view",
      "type": "function"
    },
    {
      "inputs": [],
      "name": "feeRecipient",
      "outputs": [
        {
          "internalType": "address",
          "name": "",
          "type": "address"
        }
      ],
      "stateMutability": "view",
      "type": "function"
    },
    {
      "inputs": [
        {
          "internalType": "uint256",
          "name": "lobbyId",
          "type": "uint256"
        },
        {
          "internalType": "bytes32",
          "name": "root",
          "type": "bytes32"
        },
        {
          "internalType": "uint96",
          "name": "totalPayout",
          "type": "uint96"
        },
        {
          "internalType": "uint96",
          "name": "feeAmount",
          "type": "uint96"
        }
      ],
      "name": "finalizeLobby",
      "outputs": [],
      "stateMutability": "nonpayable",
      "type": "function"
    },
    {
      "inputs": [
        {
          "internalType": "uint256",
          "name": "",
          "type": "uint256"
        },
        {
          "internalType": "address",
          "name": "",
          "type": "address"
        }
      ],
      "name": "hasDeposited",
      "outputs": [
        {
          "internalType": "bool",
          "name": "",
          "type": "bool"
        }
      ],
      "stateMutability": "view",
      "type": "function"
    },
    {
      "inputs": [
        {
          "internalType": "uint256",
          "name": "lobbyId",
          "type": "uint256"
        }
      ],
      "name": "joinLobby",
      "outputs": [],
      "stateMutability": "nonpayable",
      "type": "function"
    },
    {
      "inputs": [
        {
          "internalType": "uint256",
          "name": "",
          "type": "uint256"
        }
      ],
      "name": "lobbies",
      "outputs": [
        {
          "internalType": "uint64",
          "name": "startTime",
          "type": "uint64"
        },
        {
          "internalType": "uint64",
          "name": "endTime",
          "type": "uint64"
        },
        {
          "internalType": "uint64",
          "name": "finalizeDeadline",
          "type": "uint64"
        },
        {
          "internalType": "enum BetLobby.LobbyState",
          "name": "state",
          "type": "uint8"
        },
        {
          "internalType": "bytes32",
          "name": "merkleRoot",
          "type": "bytes32"
        },
        {
          "internalType": "uint96",
          "name": "totalDeposits",
          "type": "uint96"
        },
        {
          "internalType": "uint96",
          "name": "totalClaimed",
          "type": "uint96"
        }
      ],
      "stateMutability": "view",
      "type": "function"
    },
    {
      "inputs": [],
      "name": "operator",
      "outputs": [
        {
          "internalType": "address",
          "name": "",
          "type": "address"
        }
      ],
      "stateMutability": "view",
      "type": "function"
    },
    {
      "inputs": [],
      "name": "owner",
      "outputs": [
        {
          "internalType": "address",
          "name": "",
          "type": "address"
        }
      ],
      "stateMutability": "view",
      "type": "function"
    },
    {
      "inputs": [],
      "name": "pause",
      "outputs": [],
      "stateMutability": "nonpayable",
      "type": "function"
    },
    {
      "inputs": [],
      "name": "paused",
      "outputs": [
        {
          "internalType": "bool",
          "name": "",
          "type": "bool"
        }
      ],
      "stateMutability": "view",
      "type": "function"
    },
    {
      "inputs": [],
      "name": "renounceOwnership",
      "outputs": [],
      "stateMutability": "nonpayable",
      "type": "function"
    },
    {
      "inputs": [
        {
          "internalType": "uint16",
          "name": "_feeBps",
          "type": "uint16"
        }
      ],
      "name": "setFeeBps",
      "outputs": [],
      "stateMutability": "nonpayable",
      "type": "function"
    },
    {
      "inputs": [
        {
          "internalType": "address",
          "name": "_feeRecipient",
          "type": "address"
        }
      ],
      "name": "setFeeRecipient",
      "outputs": [],
      "stateMutability": "nonpayable",
      "type": "function"
    },
    {
      "inputs": [
        {
          "internalType": "address",
          "name": "_operator",
          "type": "address"
        }
      ],
      "name": "setOperator",
      "outputs": [],
      "stateMutability": "nonpayable",
      "type": "function"
    },
    {
      "inputs": [
        {
          "internalType": "uint256",
          "name": "lobbyId",
          "type": "uint256"
        }
      ],
      "name": "timeoutRefund",
      "outputs": [],
      "stateMutability": "nonpayable",
      "type": "function"
    },
    {
      "inputs": [],
      "name": "token",
      "outputs": [
        {
          "internalType": "contract IERC20",
          "name": "",
          "type": "address"
        }
      ],
      "stateMutability": "view",
      "type": "function"
    },
    {
      "inputs": [
        {
          "internalType": "address",
          "name": "newOwner",
          "type": "address"
        }
      ],
      "name": "transferOwnership",
      "outputs": [],
      "stateMutability": "nonpayable",
      "type": "function"
    },
    {
      "inputs": [],
      "name": "unpause",
      "outputs": [],
      "stateMutability": "nonpayable",
      "type": "function"
    }
  ],
  "bytecode": "0x60a06040526003805461ffff60a01b1916607d60a21b1790553480156200002557600080fd5b50604051620019f2380380620019f283398101604081905262000048916200022c565b33806200007057604051631e4fbdf760e01b8152600060048201526024015b60405180910390fd5b6200007b81620001bf565b50600180556001600160a01b038316620000d85760405162461bcd60e51b815260206004820152601560248201527f496e76616c696420746f6b656e20616464726573730000000000000000000000604482015260640162000067565b6001600160a01b038216620001305760405162461bcd60e51b815260206004820152601860248201527f496e76616c6964206f70657261746f7220616464726573730000000000000000604482015260640162000067565b6001600160a01b038116620001885760405162461bcd60e51b815260206004820152601d60248201527f496e76616c69642066656520726563697069656e742061646472657373000000604482015260640162000067565b6001600160a01b03928316608052600280549284166001600160a01b03199384161790556003805491909316911617905562000276565b600080546001600160a01b038381166001600160a01b0319831681178455604051919092169283917f8be0079c531659141344cd1fd0a4f28419497f9722a3daafe3b4186f6b6457e09190a35050565b80516001600160a01b03811681146200022757600080fd5b919050565b6000806000606084860312156200024257600080fd5b6200024d846200020f565b92506200025d602085016200020f565b91506200026d604085016200020f565b90509250925092565b608051611744620002ae600039600081816103ae015281816106bc015281816109f801528181610c310152610da301526117446000f3fe608060405234801561001057600080fd5b506004361061014d5760003560e01c8063715018a6116100c3578063dcdfd05e1161007c578063dcdfd05e14610353578063e74b981b14610366578063e9173b3a14610379578063ec6925a71461038c578063f2fde38b14610396578063fc0c546a146103a957600080fd5b8063715018a6146102de5780638456cb59146102e65780638da5cb5b146102ee57806399b1eb2e146102ff5780639ec95c501461032d578063b3ab15fb1461034057600080fd5b80633f4ba83a116101155780633f4ba83a146101fc5780634690484014610204578063570ca7351461022f5780635c5c8382146102425780635c975abb1461024b5780636e8fb4c61461025d57600080fd5b8063023b1fc914610152578063029c58f614610167578063120aa8771461017a57806314717e38146101bd57806324a9d853146101d4575b600080fd5b6101656101603660046113e4565b6103d0565b005b610165610175366004611424565b610444565b6101a8610188366004611481565b600560209081526000928352604080842090915290825290205460ff1681565b60405190151581526020015b60405180910390f35b6101c661025881565b6040519081526020016101b4565b6003546101e990600160a01b900461ffff1681565b60405161ffff90911681526020016101b4565b610165610741565b600354610217906001600160a01b031681565b6040516001600160a01b0390911681526020016101b4565b600254610217906001600160a01b031681565b6101c661012c81565b600054600160a01b900460ff166101a8565b6102cb61026b3660046114ad565b60046020526000908152604090208054600182015460029092015467ffffffffffffffff80831693600160401b8404821693600160801b810490921692600160c01b90920460ff16916001600160601b0380821691600160601b90041687565b6040516101b497969594939291906114dc565b610165610753565b610165610765565b6000546001600160a01b0316610217565b6101a861030d366004611481565b600660209081526000928352604080842090915290825290205460ff1681565b61016561033b366004611549565b610775565b61016561034e3660046115e7565b610a89565b6101656103613660046114ad565b610afc565b6101656103743660046115e7565b610c95565b6101656103873660046114ad565b610d0d565b6101c6620f424081565b6101656103a43660046115e7565b61106c565b6102177f000000000000000000000000000000000000000000000000000000000000000081565b6103d86110a7565b6103e88161ffff1611156104225760405162461bcd60e51b815260206004820152600c60248201526b08ccaca40e8dede40d0d2ced60a31b60448201526064015b60405180910390fd5b6003805461ffff909216600160a01b0261ffff60a01b19909216919091179055565b6002546001600160a01b0316331461048e5760405162461bcd60e51b815260206004820152600d60248201526c27b7363c9037b832b930ba37b960991b6044820152606401610419565b6001600085815260046020526040902054600160c01b900460ff1660028111156104ba576104ba6114c6565b146104fa5760405162461bcd60e51b815260206004820152601060248201526f4c6f626279206e6f742061637469766560801b6044820152606401610419565b600084815260046020526040902054600160401b900467ffffffffffffffff1642101561055b5760405162461bcd60e51b815260206004820152600f60248201526e131bd8989e481b9bdd08195b991959608a1b6044820152606401610419565b6000848152600460205260409020600201546001600160601b03166105808284611618565b6001600160601b0316146105c85760405162461bcd60e51b815260206004820152600f60248201526e0a0c2f2deeae840dad2e6dac2e8c6d608b1b6044820152606401610419565b600354600090612710906105e790600160a01b900461ffff168561163f565b6105f1919061166a565b90506105fe60018261169e565b6001600160601b0316826001600160601b03161015801561063b5750610625816001611618565b6001600160601b0316826001600160601b031611155b6106765760405162461bcd60e51b815260206004820152600c60248201526b08ccaca40dad2e6dac2e8c6d60a31b6044820152606401610419565b600085815260046020526040902060018101859055805460ff60c01b1916600160c11b1790556001600160601b038216156106ee576003546106ee906001600160a01b037f0000000000000000000000000000000000000000000000000000000000000000811691166001600160601b0385166110d4565b604080518581526001600160601b038581166020830152841681830152905186917ff94a182a3aa555c6fb7d5b86ac0f641b5ccb3464c17556d0a11c50f1d96f7b7b919081900360600190a25050505050565b6107496110a7565b610751611138565b565b61075b6110a7565b610751600061118d565b61076d6110a7565b6107516111dd565b61077d611220565b6002600086815260046020526040902054600160c01b900460ff1660028111156107a9576107a96114c6565b146107ec5760405162461bcd60e51b8152602060048201526013602482015272131bd8989e481b9bdd08199a5b985b1a5e9959606a1b6044820152606401610419565b60008581526005602090815260408083206001600160a01b038816845290915290205460ff16156108515760405162461bcd60e51b815260206004820152600f60248201526e105b1c9958591e4818db185a5b5959608a1b6044820152606401610419565b336001600160a01b0385161461089a5760405162461bcd60e51b815260206004820152600e60248201526d4e6f7420796f757220636c61696d60901b6044820152606401610419565b604080516001600160a01b03861660208201526001600160601b0385169181019190915260009060600160405160208183030381529060405280519060200120905061092a83838080602002602001604051908101604052809392919081815260200183836020028082843760009201829052508b815260046020526040902060010154925085915061124a9050565b6109665760405162461bcd60e51b815260206004820152600d60248201526c24b73b30b634b210383937b7b360991b6044820152606401610419565b60008681526005602090815260408083206001600160a01b03891684528252808320805460ff19166001179055888352600490915290206002018054859190600c906109c49084906001600160601b03600160601b90910416611618565b92506101000a8154816001600160601b0302191690836001600160601b03160217905550610a2f85856001600160601b03167f00000000000000000000000000000000000000000000000000000000000000006001600160a01b03166110d49092919063ffffffff16565b6040516001600160601b03851681526001600160a01b0386169087907fad83ad6ef8abb1529a9d4bdb6b9d2bddcf34dc334ef5e99677db83a2cae98fa49060200160405180910390a350610a8260018055565b5050505050565b610a916110a7565b6001600160a01b038116610ada5760405162461bcd60e51b815260206004820152601060248201526f24b73b30b634b21037b832b930ba37b960811b6044820152606401610419565b600280546001600160a01b0319166001600160a01b0392909216919091179055565b610b04611220565b600081815260046020526040902060018154600160c01b900460ff166002811115610b3157610b316114c6565b14610b715760405162461bcd60e51b815260206004820152601060248201526f4c6f626279206e6f742061637469766560801b6044820152606401610419565b8054600160801b900467ffffffffffffffff164211610bc85760405162461bcd60e51b8152602060048201526013602482015272111958591b1a5b99481b9bdd081c185cdcd959606a1b6044820152606401610419565b600082815260066020908152604080832033845290915290205460ff16610c245760405162461bcd60e51b815260206004820152601060248201526f139bc819195c1bdcda5d08199bdd5b9960821b6044820152606401610419565b610c5b6001600160a01b037f00000000000000000000000000000000000000000000000000000000000000001633620f42406110d4565b604051339083907f9dc10ede665d3fe08611de6af7e048434f244dfb391fe658d575676aa09c060e90600090a350610c9260018055565b50565b610c9d6110a7565b6001600160a01b038116610ceb5760405162461bcd60e51b8152602060048201526015602482015274125b9d985b1a5908199959481c9958da5c1a595b9d605a1b6044820152606401610419565b600380546001600160a01b0319166001600160a01b0392909216919091179055565b610d15611260565b610d1d611220565b6002600082815260046020526040902054600160c01b900460ff166002811115610d4957610d496114c6565b03610d965760405162461bcd60e51b815260206004820152601760248201527f4c6f62627920616c72656164792066696e616c697a65640000000000000000006044820152606401610419565b610dce6001600160a01b037f0000000000000000000000000000000000000000000000000000000000000000163330620f424061128b565b60008181526006602090815260408083203384529091528120805460ff19166001179055600082815260046020526040902054600160c01b900460ff166002811115610e1c57610e1c6114c6565b03610fe457426000610e3061012c836116be565b90506000610e40610258836116be565b90506040518060e001604052808467ffffffffffffffff1681526020018367ffffffffffffffff1681526020018267ffffffffffffffff16815260200160016002811115610e9057610e906114c6565b815260006020808301829052620f42406040808501919091526060938401839052888352600482529182902084518154928601519386015167ffffffffffffffff908116600160801b0267ffffffffffffffff60801b19958216600160401b026fffffffffffffffffffffffffffffffff19909516919092161792909217928316821781559284015191839160ff60c01b191668ffffffffffffffffff60801b1990911617600160c01b836002811115610f4c57610f4c6114c6565b02179055506080820151600182015560a08201516002909101805460c0909301516001600160601b03908116600160601b026001600160c01b03199094169216919091179190911790556040805167ffffffffffffffff85811682528416602082015285917ff982295d1467944e5d401d9ac56d299eb16e1166b7ada36f3c7452f24d286a4f910160405180910390a2505050611036565b60008181526004602052604081206002018054620f424092906110119084906001600160601b0316611618565b92506101000a8154816001600160601b0302191690836001600160601b031602179055505b604051339082907fa31ecd4ef5c4170fc73b952e6c0344155875718dd9892919041e8a449246cb2690600090a3610c9260018055565b6110746110a7565b6001600160a01b03811661109e57604051631e4fbdf760e01b815260006004820152602401610419565b610c928161118d565b6000546001600160a01b031633146107515760405163118cdaa760e01b8152336004820152602401610419565b6040516001600160a01b0383811660248301526044820183905261113391859182169063a9059cbb906064015b604051602081830303815290604052915060e01b6020820180516001600160e01b0383818316178352505050506112ca565b505050565b61114061133b565b6000805460ff60a01b191690557f5db9ee0a495bf2e6ff9c91a7834c1ba4fdd244a5e8aa4e537bd38aeae4b073aa335b6040516001600160a01b03909116815260200160405180910390a1565b600080546001600160a01b038381166001600160a01b0319831681178455604051919092169283917f8be0079c531659141344cd1fd0a4f28419497f9722a3daafe3b4186f6b6457e09190a35050565b6111e5611260565b6000805460ff60a01b1916600160a01b1790557f62e78cea01bee320cd4e420270b5ea74000d11b0c9f74754ebdbfc544b05a2586111703390565b60026001540361124357604051633ee5aeb560e01b815260040160405180910390fd5b6002600155565b6000826112578584611365565b14949350505050565b600054600160a01b900460ff16156107515760405163d93c066560e01b815260040160405180910390fd5b6040516001600160a01b0384811660248301528381166044830152606482018390526112c49186918216906323b872dd90608401611101565b50505050565b600080602060008451602086016000885af1806112ed576040513d6000823e3d81fd5b50506000513d91508115611305578060011415611312565b6001600160a01b0384163b155b156112c457604051635274afe760e01b81526001600160a01b0385166004820152602401610419565b600054600160a01b900460ff1661075157604051638dfc202b60e01b815260040160405180910390fd5b600081815b84518110156113aa5761139682868381518110611389576113896116df565b60200260200101516113b2565b9150806113a2816116f5565b91505061136a565b509392505050565b60008183106113ce5760008281526020849052604090206113dd565b60008381526020839052604090205b9392505050565b6000602082840312156113f657600080fd5b813561ffff811681146113dd57600080fd5b80356001600160601b038116811461141f57600080fd5b919050565b6000806000806080858703121561143a57600080fd5b843593506020850135925061145160408601611408565b915061145f60608601611408565b905092959194509250565b80356001600160a01b038116811461141f57600080fd5b6000806040838503121561149457600080fd5b823591506114a46020840161146a565b90509250929050565b6000602082840312156114bf57600080fd5b5035919050565b634e487b7160e01b600052602160045260246000fd5b67ffffffffffffffff888116825287811660208301528616604082015260e081016003861061151b57634e487b7160e01b600052602160045260246000fd5b606082019590955260808101939093526001600160601b0391821660a08401521660c0909101529392505050565b60008060008060006080868803121561156157600080fd5b853594506115716020870161146a565b935061157f60408701611408565b9250606086013567ffffffffffffffff8082111561159c57600080fd5b818801915088601f8301126115b057600080fd5b8135818111156115bf57600080fd5b8960208260051b85010111156115d457600080fd5b9699959850939650602001949392505050565b6000602082840312156115f957600080fd5b6113dd8261146a565b634e487b7160e01b600052601160045260246000fd5b6001600160601b0381811683821601908082111561163857611638611602565b5092915050565b6001600160601b0381811683821602808216919082811461166257611662611602565b505092915050565b60006001600160601b038084168061169257634e487b7160e01b600052601260045260246000fd5b92169190910492915050565b6001600160601b0382811682821603908082111561163857611638611602565b67ffffffffffffffff81811683821601908082111561163857611638611602565b634e487b7160e01b600052603260045260246000fd5b60006001820161170757611707611602565b506001019056fea264697066735822122019c5917c05ffd75d71ee0c958c45f9aabee37614c03bc459fe0d3addd16886e264736f6c63430008140033",
  "linkReferences": {},
  "deployedLinkReferences": {}
}